:020000041000EA
:10000000F2EB88716C92001098920010A80000101A
:1000100090A31AE7D3DEFFFF420101114403000061
:100020003600001000200820FF040000C8CA0000AD
:10003000793512AB79A897510010938171D51721AA
:100040000810130121FC173500101305B55F73105C
:100050005530732540F135ED1707000013070705EC
:100060000C4391C55043144731071D28D5BF973520
:1000700000109385657D174600101306265B21A0AE
:1000800023A005009105E39DC5FEEF30D0236D2A26
:10009000EF30F01F0290FDBF884108C291051106A4
:1000A000E36CD6FE828001009892001000000020D0
:1000B00044380020DCCA001000000820000008209E
:1000C000DCCA00100010082000100820000000000A
:1000D000828021651305C5DF02859307000089CF63
:1000E0009745001093854546178500001305C5DF29
:1000F00017030000670000008280557186C7A2C503
:10010000A6C3CAC12A89AE84B73500209385C55BD2
:100110000A852125014431A0B30589000A852125DE
:100120004104E34B94FEBE402E449E440E49696157
:1001300082805D7186C696C49AC29EC022DE2ADC89
:100140002EDA32D836D63AD43ED242D046CE72CC0F
:1001500076CA7AC87EC67327203473241034A14728
:100160006306F7049307B7FF93B71700930697FF4B
:1001700093B61600D58FD1CB37850010130585F4C3
:10018000EF30B04237850010130545F8EF30F041ED
:10019000A285378500101305C5FAEF301048378562
:1001A0000010130505FDEF30504001A08547630D99
:1001B000F502930730066303F50411047310143439
:1001C000B640A6421643864372546255D2554256F3
:1001D000B256225792570258F248624ED24E424FC0
:1001E000B24F6161730020302E85C14539373785A4
:1001F0000010130585EEEF30503BC1B73785001076
:100200001305C5F1EF30703A01A0BA8537850010AB
:1002100013058500EF30704001A0411106C6F32799
:1002200000309397B7489397C7487390073073107F
:1002300015343785001013054503EF301037730070
:100240002030B24041018280411106C6EF30B03209
:100250000565130585BBEF10B01A3785001013052F
:100260008506EF3090343785001013054509EF30CF
:10027000D033378500101305050CEF301033B70766
:10028000001093872713739057303705001013051C
:10029000052A613701A0AA85054573000000828008
:1002A000797106D622D426D2B787001093874723C8
:1002B0009043D443984732C636C83ACAD8473ACC56
:1002C00083C70701230EF100814435A89307040278
:1002D0008A9783C5C7FE378500101305051AEF30CE
:1002E000D0330504BD47E3D387FE2945EF30D0293D
:1002F0008D476381F40802C42247B7574C009387A7
:10030000F7B363D6E70AA685850437850010130581
:10031000C50EEF3090303766666613067666339604
:10032000C402098693D7F4411D8E3346C6200606C3
:100330003386C44060005106B78500109385C51010
:100340002285EF30A06DA2853785001013050512B8
:10035000EF30B02C3785001013058514EF30F024F2
:100360002285153F378500101305C517EF30F02A99
:1003700001448DBF378500101305851AEF30F02238
:10038000378500101305451DEF303022B7370020A8
:1003900083C7C75B93F7F70FA303F1008345710091
:1003A0003785001013058520EF303027A9B7A24705
:1003B00085073EC491B70147B1A093172700B34604
:1003C000A7203346B720034606002380C600938645
:1003D00017003306D500AE9683C606002300D6006C
:1003E000938627003306D500AE9683C60600230009
:1003F000D6008D07B306F500AE9783C707002380AC
:10040000F60005078D47E3FAE7FA91471307B002B4
:100410006362F7124111BDA8139727001386C7FF27
:10042000931626003346A620034606000348C10063
:10043000B3C5A720334606012380C50013861600E6
:100440002A96834506000348D100130617002A9612
:10045000B3C505012300B600138626002A968345FE
:1004600006000348E100130627002A96B3C50501DC
:100470002300B6008D06AA9683C606000346F10047
:100480000D072A97B18E2300D70085071307B00206
:100490006360F70A9386F7FF13972600B3C6A6207A
:1004A00003C806002306010193061700AA9683C518
:1004B0000600A306B10093062700AA9603C606000D
:1004C0002307C1000D072A9783460700A307D10021
:1004D00013F7370031F32306B100A306C100230749
:1004E000D100A307010137970010130747B1BA9550
:1004F00083C505002306B1003A9603460600A3060D
:10050000C100BA9683C606002307D100429703476D
:100510000700A307E10093D62700379700101307C1
:1005200087B0369703470700B98D2306B100EDB5B4
:10053000410182808280814815A8B3C6B820BE964A
:1005400003C80600334715213347F7203297034786
:1005500007003347E8002380E600850793F7F70F8D
:100560000D47E37CF7FC850893F8F80F8D4763E4AB
:1005700017018147F5B78280014605A8B3C6A720B9
:10058000B29683C5060037970010130747B12E9720
:10059000034707002380E600850793F7F70F0D4711
:1005A000E37EF7FC05061376F60F8D4763E4C7007C
:1005B0008147F5B782808347150003475500A300A4
:1005C000E50003479500A302E5000347D500A30417
:1005D000E500A306F500834725000347A500230196
:1005E000E5002305F500834765000347E500230385
:1005F000E5002307F500834735000347F500A30115
:10060000E5000347B500A307E50003477500A30510
:10061000E500A303F5008280135775009317370098
:10062000998F8A07998F06053D8D1375F50F828086
:10063000797106D622D426D24AD04ECE52CC56CA92
:100640005AC85EC62A8B014AA5A033446A21834B4F
:100650000400834A140033C57A0183492400034906
:100660003400B3443501B34499007D37B3C7A400C7
:10067000B3C7FB002300F40033C53A01713F258D59
:10068000B3CAAA00A300540133C529017137258DCF
:10069000B3C9A9002301340133457901B53FB3C77C
:1006A000A400B344F900A3019400050A137AFA0FD9
:1006B0008D47E3FC47F9B250225492540259F24953
:1006C000624AD24A424BB24B45618280411106C612
:1006D00022C426C24AC0AA842E892E86AA85014534
:1006E000993D05442685493D2685F135A947630C8A
:1006F000F4002685353F4A86A68522852D3D0504D2
:100700001374F40FC5B74A86A68529452D35B24026
:1007100022449244024941018280411106C6613956
:10072000B24041018280411106C6AE87AA853E854E
:10073000713FB24041018280B78703409107B347C0
:10074000F5209843134707041377070C8566BE9678
:1007500098C2378702403365E5204CC10D67BA97D0
:100760001307001098C38280397106CE22CC2A84E8
:100770002ED232D436D63AD83EDA42DC46DE37853F
:10078000001013058524EF30406201CC4C102EC6BA
:100790002285EF3000643785001013050503EF3024
:1007A000C0600545EF30602E73750430B7470020F8
:1007B0009387F7CF139737003317E028F19BAFA645
:1007C000E744F98EEDFE0F00300382800F00300306
:1007D000B7470020938747CFA3850700218973205F
:1007E00005308280411106C622C426C24AC0AA84AE
:1007F0002E843289553F935734003387F400834663
:10080000070093777400B317F02833F6F60009EE6B
:1008100093F7F70FD58F2300F7004D3FB2402244E6
:100820009244024941018280A2854A85353F0111E7
:1008300006CE22CC26CA4AC84EC652C42A89AE89E0
:100840003284B6843A8A8D3711A0050463E68402A7
:10085000135634004A960348060093777400B31782
:10086000F028B378F800E39208FE93F7F70FB3E7A8
:1008700007012300F60011A07D54893F9357F4012E
:10088000B3F7370191EB2285F2406244D2444249EA
:10089000B249224A056182805285F93537470020E6
:1008A000034547839307150093F7F70F230AF78251
:1008B0005D476377F700B74700204147238AE78207
:1008C0008280411106C6AA85378700101307872545
:1008D000FD4661463745002013050559893FB24062
:1008E00041018280014719A80F003003B74700205B
:1008F000938747CFBA97238007000507FD47E3F5A5
:10090000E7FE828093574501FE07135715005607EF
:10091000B706E07F758FD98F1357B5005207B7061A
:100920001000758FD98F37F70F00798D5D8D82801C
:100930009357B500B2070567F98F135745002E0787
:100940009316B028758FD98F135785002607137714
:100950000760D98F1357A500220713770710D98F87
:10096000135765001E0713770708D98F13577500B3
:100970001A0713770704D98F135715000E0713773B
:100980008703D98F15810A0511895D8D82800357F0
:1009900005009356270093F7E60013567700418A27
:1009A000D18F1316370013760602B297135617002D
:1009B00093750604AE979315170093F50508AE9747
:1009C00013760630B2970A0713770740BA971317C2
:1009D000B028F98E958F3E95828015C206059397B3
:1009E0000501C98F73B027BE05054177F98D4D8D7F
:1009F000733025BE73A007BE732005BE8280060536
:100A000093970501C98F73B007BE0505C177FD8DAA
:100A10004D8D733005BE8280F3275030F19B130556
:100A200045033345F5200CC10F0030030F003003A0
:100A3000B7470020938747CFA3840700218A7320FC
:100A400006308280411106C63385A5401307F57F25
:100A500005078567F91763EFE7009377150099EBB2
:100A6000C13D136515001315D52833450508B2405F
:100A700041018280B7860010938646273796001082
:100A8000130646C493058012378500101305452AC6
:100A9000EF304000411106C67537E1775D8D334573
:100AA0000508B2404101828093574500F3A707BE75
:100AB000C1833D893315A0287D8D3335A000828008
:100AC000411106C6193FB24041018280411106C65C
:100AD0002E86B315A0281581E537B24041018280EA
:100AE000935745003D893315A0284205C98F73A04F
:100AF00027BE8280F3275030F19B13054503334511
:100B0000F52008418280411106C6ED37B737002035
:100B10009387C75C1D8D13350503B2404101828068
:100B2000411106C622C426C24AC0AA842E84737705
:100B300004303A89B74700209387D7CF13973700FF
:100B40003317E028F19BAFA6E744F98EEDFE0F00C6
:100B500030034D37B73700209387477E6304F50095
:100B6000631C85004A86A28526857D35B2402244D5
:100B70009244024941018280B78600109386C62EB6
:100B800037960010130686C69305D00E37850010E1
:100B90001305452AEF201070397106DE22DC5ECE87
:100BA000F3770430BE8BB74700209387D7CF1397D6
:100BB00037003317E028F19BAFA6E744F98EEDFE2E
:100BC0000F003003B7470020038447596345040CE6
:100BD00026DA4AD84ED652D456D2AA8A2E89B28460
:100BE000B3298420B73700209387C75CB3C9F920A5
:100BF0008386A90037470020230AD758F3265030B0
:100C0000F19A130745033347D720032A0700B30798
:100C1000FA401307F002637DF70CB7370020938783
:100C2000477E6313FA0A5AD0131A1400B32784209C
:100C3000373B0020130BCB5CB3C76721373500204F
:100C40001305C55F1D8D7D391365F52E2AC24AC473
:100C5000F177938727E42316F100FD572307F1006E
:100C6000A3079100B3078A00B3C7672188C323A2F3
:100C70002701324798C74E8A5E86D2855685693BE2
:100C8000D2544259B259225A925A025BF2506254DB
:100C9000F24B2161828026DA4AD84ED652D456D2FF
:100CA0005AD062CC66CA6AC8B786001093864632AC
:100CB00037960010130606C59305C0173785001038
:100CC0001305452AEF20105D5AD062CC66CA6AC867
:100CD000B78600109386C63437960010130606C5F3
:100CE00093053018378500101305452AEF20905AD8
:100CF00037B7AAAA1307B7AA33B7E7020D8333277A
:100D0000E7200A076397E7025AD0D287014B03C74F
:100D1000B70063F5E4040387A700634007043327A3
:100D2000E7203E8BB73700209387C75CB347F72097
:100D3000F9BF5AD062CC66CA6AC8B78600109386DB
:100D4000463737960010130606C5930540193785B8
:100D500000101305452AEF20F0533E8B63080B0863
:100D6000931719000567F98FCA9793F70780939730
:100D7000B74893E7770B3EC252091369790E1319EE
:100D8000F9284AC40309AB0063520904316513050D
:100D900025E42316A10023072101A3079100CE8596
:100DA00013058B00C5392314AB0023058B00B7371F
:100DB0000020332484209387C75C3344F420924777
:100DC0001CC0A2475CC0B2471CC47DB513058B0094
:100DD0007D3EAA85B3278420373700201307C75CE0
:100DE000B3C7E72013858700753165B762CC66CA43
:100DF0006AC8B327842037370020130BC75CB3C7FA
:100E000067213E8C373500201305C55F1D8DDD3C05
:100E10009367F52EBE8C3EC24AC4D28513058C0062
:100E200095392316A100B3076A41898737B7AAAA63
:100E30001307B7AAB387E7022307F100A3079100BE
:100E400023209C0123222C0132472324EC0003277A
:100E50004A00931717008566F58FBA9793F70780B6
:100E60009397B74893E7770B2320FA00520713674D
:100E7000770E1317F7282322EA004E8A624CD24CD1
:100E8000424DDDBB011106CE4AC84EC652C42A8966
:100E9000F37704303E8AB74700209387D7CF139764
:100EA00037003317E028F19BAFA6E744F98EEDFE3B
:100EB0000F00300373275030719B93074503B3C76E
:100EC000E72083A90700B73700209387477E638117
:100ED000F90226CAAE84638DB922B7370020938702
:100EE000C75CB387F9401307F002637DF700D24473
:100EF0005286CE854A850D36F2404249B249224A91
:100F00000561828022CC56C24536AA8A81454A852F
:100F1000753E0F003003F32750BE13970701634956
:100F20000702918393F7F71F138647036303F902C0
:100F3000B78600109386863F37960010130606C3C7
:100F400093052020378500101305452AEF209034A3
:100F500001464E8481463DA093F707809397B7489A
:100F600058405187BA976386F4020307A40063418F
:100F700007023327E720A286373400201304C45C1D
:100F8000334487201C4013F7870079D75C40E1BFCA
:100F9000A286639FF4148304A40063CB040E373746
:100FA0000020B3A794201307C75CB3C7E7209C4376
:100FB00013F7870041CF37370020B3A794201307DA
:100FC000C75CB3C7E720DC436302340B13971700F9
:100FD0008566758F3E97137707801317B748136799
:100FE000770B18C0D20793E7770E9397F7285CC06A
:100FF00037370020B3A794201307C75CB3C7E72097
:1010000003C7B700A305E4008387A7002305F40006
:1010100063D007063165130525E42314A400373790
:101020000020B3A794201307C75CB3C7E720374756
:101030000020834647592385D700230A9758D68531
:101040004A8569346244D244924A5DB593F7078079
:101050009397B748B736002033A794209386C65C91
:101060003347D72058435187BA97B9BF5CC049B7B7
:1010700033A59420B73700209387C75C3345F5200C
:101080002105EFF0DF90AA8513058400213471B7A4
:1010900029E69DCEFD572385F600F177938727E457
:1010A0002394F600B746002083C746592305F40071
:1010B000B73700209387C75CB307F440898737B7F9
:1010C000AAAA1307B7AAB387E702238AF65885BFEF
:1010D000B73900209389497EF1B7B7350020938551
:1010E000856013058400EFF0FF952314A40081BFF1
:1010F000B78600109386C64237960010130606C3C3
:1011000093054024378500101305452AEF209018D9
:10111000B73900209389497ED244D9BB93D7450083
:1011200093C7F700935625000D890A053D473317ED
:10113000A7004207558F733037BEB397A700C20789
:10114000DD8E73A036BE8280411106C622C40144E2
:1011500031A0930500082285D13705049307300399
:10116000E3F987FE73600430B2402244410182807B
:10117000411106C6B73700209387C75CB307F54017
:101180001307F0026367F702732750BEA167F98F58
:10119000A9C3B78600109386C6453796001013067C
:1011A00046C193052028378500101305452AEF20F6
:1011B000700EB786001093864643379600101306CC
:1011C00046C19305F027378500101305452AEF2007
:1011D000700C11831377F71F1307470373780430DC
:1011E000B74600209386D6CF139636003316C02814
:1011F000F19AAFA8C644B3F8C800E39C08FE0F00FC
:101200003003B73600209386C65CB306D540898686
:1012100037B6AAAA1306B6AAB386C6029396466044
:1012200073265030719A931827003347C72018430C
:101230006313A704F3275030F19BC697373700207C
:101240001307477E98C3B747002003C747592305B4
:10125000E500238AD7580F003003B7470020938753
:1012600047CFA38407001378880073200830B2406A
:101270004101828085070D47636CF70237360020F5
:1012800033A7F7201306C65C3347C7200307A70020
:10129000E312D7FE328733A6F7203346E620FD550A
:1012A0002305B6007177130727E42314E60061BF16
:1012B000B78600109386864637960010130646C1FF
:1012C00093053029378500101305452AEF20807CCF
:1012D000411106C6AA8537870010130707479546B0
:1012E00001463745002013055559EFF04FD46346AA
:1012F0000500930730033385A740B2404101828047
:10130000B7470020938747CFAE971CC18280411119
:1013100006C622C42A84EFF06FD8AA852285CD376D
:10132000FD572302F4000F003003B2402244410174
:101330008280411106C622C42A84EFF02FD6AA85E6
:1013400022857D3FFD572302F400A30204000F0015
:101350003003B240224441018280411106C622C4BA
:10136000374400201304C4831DA0B7860010938661
:10137000C64837960010130686CAE945378500101F
:101380001305C54AEF200071228551372104B74764
:10139000002093874784637BF4001C40F5D7054702
:1013A000E395E7FC228571372104D5B7B24022448A
:1013B00041018280B7470020938747CFAE971CC179
:1013C0000F0030038280411106C622C42A840545DD
:1013D000EFF02FCFAA852285F13FB2402244410190
:1013E00082802A87F32750BE9396070163C10602C5
:1013F000918393F7F71F938747039387C7FC93D68F
:10140000270081CA37850B408D8B1CC382808147A2
:10141000EDB737050B40CDBF1855B306E6409387AF
:101420004500B3C7A7209C43998F63E7F6001C5182
:101430003317B028F98F89E7910533C5A52010C16E
:10144000828042054D8D8280B746002083A7865951
:1014500073770430139637003316C028F19BAFA57D
:10146000C744F18DEDFD0F00300383A786590F00AF
:101470003003238007009377870073A00730332061
:101480001000014581458280397106DE22DC26DAB2
:101490004AD84ED652D456D25AD05ECE6800913732
:1014A000B787F4BFAA9793B717003247B746002013
:1014B000B3C7E7209386C655B3C7D7208043834779
:1014C0000400631BF700AA84930745043317E02840
:1014D0008D66B69798C359A4B786001093860654B4
:1014E00037960010130646CD930520093785001066
:1014F0001305C556EF20005A5C48B3292921B3E9EA
:10150000F92083AA890003AAC9002685EF00500E9E
:10151000330755413337E500B3874541998F63C79A
:10152000072463400A0E03AB0901B7170010938725
:1015300087486307FB0683D529000315840011370C
:1015400083A54901029B2A8BAE8BB3677B01D5CB68
:1015500063D40B06B3866A41B3BADA00B3077A41A3
:10156000B387574123A4D90023A6F90003950900A6
:10157000634E051E832844013327A52033671721B6
:10158000104758473386C64033B6C6003387E74016
:10159000118F634D071C2314A4001308840015A8A1
:1015A00083AB490183A70B015E85829739C903ABE1
:1015B0000B0083AB4B0051BF2685EF007003B306D1
:1015C000AB00B3B7A600AE9BDE9769BF3A880315A0
:1015D000070063430502031708003327E72033673A
:1015E00017210C475047B385B640B3B5B6003386D4
:1015F000C7400D8EE35C06FC2390A9002310280150
:10160000B5A2839709002314F4001C4873770430B3
:1016100093963700B316D028F19B2FA6D744758E2A
:101620006DFE0F003003831724002390F90023116F
:1016300024011C480F0030032380070093778700A4
:1016400073A0073025A21C487377043093963700A7
:10165000B316D028F19B2FA6D744758E6DFE0F00D0
:101660003003035E4400131E5E60FD572312F40036
:101670001C480F003003238007009377870073A076
:1016800007302DA8BE8503960700634306028397A3
:101690000500B3A7F720B3E707219447D847B3065F
:1016A000D540B336D5003387E840158FE35C07FC9F
:1016B0002390C501031E03002310C300634E0E0ACE
:1016C000032844013323CE21336303210325830000
:1016D0008328C30093058400031684007DB7230389
:1016E0000400930584000317840025A07D58FD584D
:1016F00023A4070123A6170183168400638AE6004A
:101700002390C500831684002390D7002314E4009F
:101710003287FD576305F7065448B327E720B3E740
:10172000D7200396070083D6270093965660E3CF11
:1017300006FABE85F1BF4E86CA86B2452685E939CE
:1017400026857D25B387A940B3B9F9003309B9408F
:10175000330939416349200563060904B247B317C9
:10176000F028DCDC03198400E35809D883574400CF
:1017700093975760E3D907EC83476400ADF3831771
:10178000840063C207025848B3A7F720B3E7E720F5
:1017900083A9870003A9C700FD57E39EF9F8E30179
:1017A00039FB51BFC5DF33201000F2506254D254D0
:1017B0004259B259225A925A025BF24B21618280FD
:1017C000411106C622C426C24AC02A84AE84B2850C
:1017D000B7870B406309F50201492699B314902895
:1017E00004D04A85EFF0CFB385454A85EFF00FAEC0
:1017F0001304040489673E9404C0B2402244924416
:101800000249410182801149C9BF011106CE22CC93
:1018100026CA4AC84EC62A842E89B289B6844CC5C7
:10182000EFF0CF87B7470020938747CFAA971CC810
:1018300023003401B3C704082315F400370700D090
:1018400003470700A300E4007D572314E40023129C
:10185000E400BA972311F400814721A81388F7FF09
:101860008328440133A7F72033671721231007018A
:101870008507E3E597FEB787F4BFCA9793B71700CC
:1018800037470020B3C737211307C755B3C7E72031
:1018900080C33716001013068648CE854A850D375B
:1018A000F2406244D2444249B24905618280B7376E
:1018B0000020938787619C4B91C737350020130523
:1018C00085618280411106C6B78600109386C65A8C
:1018D000379600101306C6CB9305500637850010C7
:1018E0001305C556EF20001B411106C622C426C2AF
:1018F0004AC02A841C497375043013983700331882
:101900000029F19BAFA80745B3F80801E39C08FE46
:101910000F003003031924005C48B3242921B3E4E9
:10192000F42063460900839704002311F4001C4847
:101930000F003003238007009377850073A00730E2
:101940006341090894C8D8C88CC4D0C483D5240086
:101950008505B3C50508A167FD17FD8D91E1854596
:101960002391B4004A85F13C1C4873770430939668
:101970003700B316D028F19B2FA6D744758E6DFE85
:101980000F003003835744002390F40023122401F6
:101990001C480F003003238007009377870073A053
:1019A00007305C4403470400938747043317E0285B
:1019B0008966B69798C3B2402244924402494101D5
:1019C00082807D55CDBF011106CE22CC26CA4AC8E1
:1019D0004EC652C42A892E84B284B6893A8A99EBBB
:1019E000B5293305A4403335A400B385B440898DAF
:1019F00063C005025287CE86A28526864A85ED35CC
:101A0000F2406244D2444249B249224A056182808E
:101A10000145FDB7011106CE22CC26CA4AC84EC6E2
:101A200052C42A8AAE893289B6843A844935A2875B
:101A30002687CA86D2854E867937F2406244D244E0
:101A40004249B249224A05618280AA8713D70541DB
:101A50008356A500635ED70654493327E7203367D2
:101A6000D720144973760430139536003315A02817
:101A7000F19A2FA8A6443378A800E31C08FE0F00B3
:101A800030038356270033C50608B3C505086388AD
:101A9000B6020145984B0F0030032300070013776F
:101AA00086007320073015C5D84783C60700930703
:101AB00047043317D0288966B69798C382801315D8
:101AC000F5282311A70005472383E7003A85D9B7F6
:101AD00001458280411106C622C42A84C93BA285E1
:101AE000AD37B24022444101828003451500828017
:101AF000011106CE22CC26CA4AC84EC6F32750BED4
:101B00001397070163580704AA842E849309A5FF3D
:101B100033B9A9009387F5FF3E9963E62501631663
:101B2000B90063743501814901490D2E3385A940FF
:101B3000B3B7A900B305B9409D8D6344B0028DC110
:101B40002685A285352EF2406244D2444249B249EC
:101B500005618280378500101305055DEFE0DFC069
:101B600065D10147814637160010130686444E851D
:101B7000CA854D3563500504E1B7B746002083A7F9
:101B8000865973770430139637003316C028F19BBB
:101B9000AFA5C744F18DEDFD0F00300383A7865933
:101BA0000F003003238007009377870073A007306E
:101BB00033200000B7070B40DC53E3E027FDB706F6
:101BC0000B409456E3FE36F7E31CF9F67DB741115E
:101BD00006C622C426C22A84AE8449242295333400
:101BE0008500A695A29563C805001937B240224426
:101BF0009244410182807D55B7050080AA95F5B7D2
:101C0000411106C69307803EB335F5023305F50250
:101C10007D3FB24041018280011106CE22CC26CA0E
:101C20002A84AE84F32750BE13970701635E070A28
:101C30004AC84EC6AD395C453E8783470500BE891C
:101C40003A893A857522B307A440B336F400B385C8
:101C5000B4403E87958D93874900B3C727219C43A5
:101C6000898F814663C8D5026384B60233200000A1
:101C7000B7070B40DC5363E5970AB7060B40945651
:101C800063F4860A638AF40805454249B249B5A857
:101C9000E37EF7FC014781463716001013068644A1
:101CA0002285A685853B6355A008B7070B40DC530A
:101CB00063E9970037070B401857637687006394F2
:101CC000F400332000003935B7070B40DC5363E1E3
:101CD000970A37070B4018576370870A6386F40822
:101CE00005454249B24915A0B7070B40DC5363EDE7
:101CF000B700B7060B40945663FEA6006384F50058
:101D0000054521A0014511A00145F2406244D2449D
:101D1000056182800545D5BF01454249B249F5B705
:101D200001454249B249D5B705454249B249F1BFDB
:101D3000B7070B40DC5363E19702B7060B4094569C
:101D400063F086026386F40005454249B24975BFD7
:101D500001454249B24955BF01454249B24975B7AB
:101D600005454249B24955B701454249B24971BF9B
:101D700001454249B24951BF05454249B24971B78F
:101D800037050B408280411106C6B7370020938784
:101D900087619C4B99CBA945374500201305855990
:101DA000EFF00FD6B2404101828022C4D13F2A8495
:101DB0008D452128C1460D46A285373500201305E3
:101DC0008561EFF09FA42244F9B7411106C6B78799
:101DD000F4BFAA9793B71700378600101306066260
:101DE0001385F1803E95EFE0FF9FB2404101828074
:101DF0002A875C510857BE855C53E39DF5FE8280BF
:101E00005C5111A05C51E3EFC7FE11A05C516395DA
:101E1000C7001C55E3ECB7FE8280411106C622C400
:101E200026C24AC02A892E84B284D9372E87B305A8
:101E30008500B3B7A500330697003E966366E600BB
:101E40006316C70063F4A500FD552E864A854D3FF5
:101E5000B24022449244024941018280411106C6A7
:101E600037050B407137B24041018280411106C6EF
:101E70002E86AA8537050B404D37B240410182803E
:101E8000411106C62E86AA8537050B40953FB24004
:101E900041018280B7870740630FF5006947331718
:101EA000E028B737024098C3B70702409C47B37792
:101EB000F740FDFB82806D47DDB7411106C622C4A5
:101EC00000599377140091E72285B24022444101E2
:101ED000828026C2930705030D67BA971307103057
:101EE00098C35C5118559A07BA97AA07BE8419453A
:101EF000092CB7872B8F938757B73335F5022D8180
:101F000033D5A40281459D3792447DBF411106C659
:101F100022C426C24AC02A84AE843289793F9307FC
:101F2000C4025854B3C5E40033F625010567BA97D7
:101F300090C308D8B24022449244024941018280B1
:101F4000411106C622C426C24AC0AA842E8419455D
:101F50004D2A93173500B3D78702850713D9770029
:101F6000630B090041677917636C270385834A84F3
:101F700013F9F70311A00544C0D023A4240301469C
:101F80008145268561371945AD2A0A051A044A9408
:101F900033558502B2402244924402494101828075
:101FA000014941647D14C9BF91CD2947B787F8BF66
:101FB0003E9513351500938731813325F520231085
:101FC000E500828013070010D5B7411106C622C470
:101FD00026C22A84AE8419452D2231C1B787074015
:101FE0006304F404E947B317F028372702401CC301
:101FF00022854D3581452285453FA6852285893735
:102000001307C4025C5493C7070793F7E707856675
:1020100036971CC3930710301CD88D473CC4B24080
:102020002244924441018280ED4775BF3328A520A8
:10203000B70701403348F8208327480063F4E700DE
:102040002322E8009308C5FF854763FC17078D67C7
:10205000C2971313B02823A06700B74700209387C7
:10206000470FB347F52003A3070063010302B747F7
:1020700000209387470FDC4BB3D767028507B3A7D0
:10208000F72001009387E7FFE3DE07FE16068327AC
:1020900008003D8E1376060E8567C29790C30546ED
:1020A000637D16038967C2971316B02890C3232255
:1020B000E800B74700209387470F3345F52014C148
:1020C0008280E396F5F88D67C2970D4323A06700E1
:1020D00083278800858BEDDF55BF032608002D8EF2
:1020E0000D8A90C3832788003316B028F18FFDDB5B
:1020F00055BF0100411106C641670D3FB240410185
:102100008280B74700209387470F3345F520084169
:102110008280411106C6B727B700938707B0B3D7AF
:10212000B70237F84BD3130808883298B708AA3299
:102130009388088863E20809B358F602138308FFFE
:1021400013080013636968081388F6FF1943636373
:10215000030B1308F7FF636F03091182636BF60A21
:10216000C2063207D98E1C4163C5070CB7870540EC
:102170006303F50E39473317E028B727024098C3A9
:10218000B737024098C3B70702409C47B377F74080
:10219000FDFB0CC123241501130745008D673E97F5
:1021A000930710021CC31C41E3DF07FE54C5A1477F
:1021B0001CC3B24041018280B786001093864664FA
:1021C000379600101306C6CEC54537850010130597
:1021D0004569EF10300CB78600109386C66D3796B0
:1021E00000101306C6CEE545378500101305456976
:1021F000EF10500AB78600109386866F379600104E
:102200001306C6CEF1453785001013054569EF105A
:102210007008B78600109386467437960010130630
:10222000C6CE930530023785001013054569EF10BF
:1022300070061C4193F7F703E39AB7F21C45056754
:102240007D17F98FE39417F35C4537770700F98F13
:10225000E39ED7F0B9BF3D4739BF03A77181B78768
:102260000D40D8C38280B7B70D403707004098C3F0
:1022700037A70140B7070002CD171CC789CDB7A704
:102280000D403707000798C309EDB7A70D40370782
:10229000008098C38280B7B70D403707000798C306
:1022A000E5B7411106C63345A5203345A520334582
:1022B000A5200E05A3ABA180B70700016365F5005B
:1022C000FD17A3ABF180513FB7A70D403707004082
:1022D00098C3B24041018280411106C6AA87328567
:1022E00037B70D40B706004014C38DC7B7860D4001
:1022F00037C707B01307370DD8CE3747F84F130746
:10230000D7F23D8F98D2CCD29CD68145A93FB2401E
:1023100041018280B7870D4023AE0700FDB73787A4
:102320001040B327A520B3C7E720CCC33E8585471F
:102330001CC18280011106CE22CC26CA4AC84EC6D4
:10234000AA892E89B2843684A16783D7A7DF854501
:102350001165130525258297AA87A2862686CA8538
:102360004E858297F2406244D2444249B2490561A7
:102370008280411106C6A16783D7A7DF8545829772
:10238000B24041018280411106C6AA86634705001A
:1023900093E7050201CA93E505032E86A9451305B7
:1023A0002010493FBE85D5BFB7170E4083A787824F
:1023B000E5DF0F0030038280014721A8B7870310B3
:1023C00093873720BA978A070F00300323A00700AE
:1023D00005079D47E3F4E7FE8280411106C6E93F09
:1023E000B24041018280378704408567938707AAFE
:1023F0001CC39307A0115CC7B7A7044037B7FA0006
:1024000098C3B7870440DC43E3DD07FE82804111B7
:1024100006C622C42A8421A01C4082971104B787D3
:102420000010938787EDE369F4FEB2402244410136
:1024300082808280411106C637850010130505EAA7
:10244000F937B2404101828037270240B747EFEFAA
:102450009387F7B71CC337370240B707F403D91780
:102460001CC3B70702409C473707F4035917B377DB
:10247000F740E5FB8280B7071150F847A167630377
:10248000F7008280B727115037070400F8C7828011
:1024900037370240B7070020FD171CC3B7070240BB
:1024A0009C47370700207D17B377F740E5FB828014
:1024B000411106C6156513053525653DAA871145E9
:1024C0008297B24041018280411106C6156513050D
:1024D00035254535AA8705458297B240410182805E
:1024E000411106C6EFE00FC0B240410182804111A8
:1024F00006C622C426C211452931B7E71B4393877C
:1025000037E8B334F502C980014429A0A6852285A5
:10251000393505049547E3DB87FEB24022449244F7
:1025200041018280411106C6B707014023A2070876
:102530005D3DB73701400547D8DFB7070140F84395
:102540008547E31CF7FEB73701400D4798DBB70717
:102550000140985F8547E31CF7FE094795463736EB
:102560006859130606F0BE85370505405D361547E8
:10257000BA8637968647130606C0854537850540D7
:10258000493EB726B700938606B0014689451145F6
:10259000EFF05FB6B7D6F00893860618014685457A
:1025A0001545EFF03FB5B776DC02938606C00146CD
:1025B00081452145EFF01FB4B776DC02938606C053
:1025C000014681452545EFF0FFB2B7D6F008938666
:1025D0000618014681451945EFF0DFB1B7D6F0087E
:1025E00093860618014681451D45EFF0BFB00137BF
:1025F000B240410182806375D600B2952380A50068
:102600008280828009C9411106C69C41CC418297D3
:10261000B240410182808280AA86014521A83345CB
:10262000A520930717009CC2834707003325F52098
:10263000130505FD984283470700938707FD93F72D
:10264000F70F2546E37DF6FC8280797106D622D409
:1026500026D24AD04ECE52CC56CA5AC85EC662C4A2
:10266000AA842E89B28BB689BA8A3E84428B13FC27
:10267000280063110C0493F81800639D080266C2D9
:102680003E8A11A8930C1600CE86CA851305000257
:102690008294050A6686E3676AFF924C21A87D143E
:1026A000B3878A00130A1600CE86CA8503C50700C1
:1026B000829452866DF463170C023285B250225414
:1026C00092540259F249624AD24A424BB24B224CCE
:1026D0004561828013041600CE86CA851305000268
:1026E00082942286B3077641E3E667FFF9B741118A
:1026F00006C6C28FC68E424F5248E24813F32800E6
:10270000631F03046305080213F318006301030247
:1027100063960F0013F3C800630B03007D1801A834
:102720003303F700130E00032300C301850713B31F
:10273000070263F4E701E31503FE13F318006300D7
:10274000030213B3070263FC0701630A03003303A8
:10275000F700130E00032300C3018507F9BF13F32D
:102760000801630D030813F30840631C0304B1CB95
:102770003383E74113331300338E0741133E1E00AA
:102780003363C301630F0302138FF7FF3333E00199
:10279000138E0EFF133E1E003373C3016302030248
:1027A000F91713F30802631B03067D4E6368FE06E8
:1027B0003303F700130E80072300C30185072DA004
:1027C000FA874143E38F6EFCF91E93BE1E0013B3DC
:1027D0000702B3FE6E0063890E003303F700130E89
:1027E00020062300C30185077D436365F30233039D
:1027F000F700130E00032300C30185077D43636BBD
:10280000F300638D0F023303F700130ED002230091
:10281000C30185071D3DB24041018280414EE395D1
:10282000CEFBE30303FA7D43E360F3FA3303F700DF
:10283000130E80052300C30185077DB713F34800FD
:10284000630A03003303F700130EB0022300C30131
:102850008507C9B713F38800E30E03FA3303F700C3
:10286000130E00022300C30185076DB7397106DE20
:10287000BE8F164F19E3137FFFFE937E0F406383D5
:102880000E0425C3814E3DA813730F026308030491
:102890001303100472931373F30F59131373F30F8D
:1028A00093871E00138E0E03B30E2E0023806EFE40
:1028B000335E070313B3070263660703630403026F
:1028C000BE8E7287337E0703137EFE0F2543E36DB2
:1028D000C3FB130E0E031373FE0FD9B713031006B9
:1028E00055BFBA877AC406473AC246C0C2887E88B6
:1028F0001808F53BF25021618280197186D6A2D466
:10290000A6D2CAD0CECED2CCD6CADAC8DEC6E2C4EF
:10291000E6C2EAC06EDEAA8B2E8CB28C368D3A8966
:10292000BE84C28DC6DEC68A8A493A4BD98F99E3E6
:10293000137BFBFE13740B401DCCB3679900C9C712
:10294000014415A893770B0291CB93071004AA9723
:1029500093F7F70FD91793F7F70F3DA893071006D2
:10296000FDB7814793F7F70F13370A02B9CF31CF7D
:1029700052842A89AE845686CE864A85A68597E0FB
:10298000FF0FE780004E1375F50FA547E3ECA7FA9C
:10299000130505039377F50F130A140013070403B7
:1029A000330427002300F4FE5686CE864A85A6858A
:1029B00097E0FF0FE78000148547E3E434FBE393DF
:1029C00099FAE37159FB71BF014A5AC4AA473EC242
:1029D0009A473EC0D6886E88D2871808EA866686EF
:1029E000E2855E852933B650265496540659F64939
:1029F000664AD64A464BB64B264C964C064DF25D7F
:102A000009618280597186D6A2D4A6D2CAD0CECE10
:102A10002A842ECA32CE36CCBA893AD03E893ED2EA
:102A200042D4C6844E86CA864E85CA859710001049
:102A3000E7802080631F052CB797001003A6071CB2
:102A400083A6471C4E85CA8597F0FF0FE780207646
:102A50006341A02CB797001003A6871C83A6C71C50
:102A60004E85CA8597000010E780E0816343052A00
:102A7000D2CCD6CADAC8DEC6E2C4E6C26EDE0146F1
:102A80008146025992594A85CE8597F0FF0FE7801B
:102A9000807F6344052A8257BE8B9257BE8DC657EE
:102AA00093F707403ED699E399473ED4DE8A6E8B72
:102AB000B3E7BB0163880728EAC013D54D0113753E
:102AC000F57FB7071000FD17B3F7FD003707F03F9C
:102AD00033E9E700130515C097100010E780A084C4
:102AE000B797001003A6071D83A6471D9700001087
:102AF000E7804087B797001003A6871D83A6C71DF0
:102B000097E0FF0FE78080712A8AAE89B79700109F
:102B100003A6071E83A6471E5E85CA859700001080
:102B2000E78080DEB797001003A6871E83A6C71E26
:102B300097000010E78000832A86AE865285CE85F6
:102B400097E0FF0FE780806D97000010E78020720C
:102B50002A8C97000010E780007D2A8AAE89B797FB
:102B6000001003A6071F83A6471F97F0FF0FE780FB
:102B7000607FB797001003A6871F83A6C71F97E043
:102B8000FF0FE780A06997000010E780406E2A8958
:102B9000B797001003A6072083A647205285CE854D
:102BA00097F0FF0FE780007C2A8AAE894A8597005C
:102BB0000010E7804077B797001003A6872083A610
:102BC000C72097F0FF0FE780E0792A86AE8652850E
:102BD000CE8597000010E78020D32A8AAE892A8606
:102BE000AE8697F0FF0FE780E0772A8BAE8A130955
:102BF000F93F52095286CE865285CE8597E0FF0F67
:102C0000E780C0612A8DAE8C5286CE86B7970010C1
:102C100003A5072183A5472197000010E780C0CEB8
:102C20002A8AAE89B797001003A6872183A6C721F9
:102C30005A85D68597F0FF0FE78040EEB7970010D2
:102C400003A6072283A6472297E0FF0FE780005DD7
:102C50002A86AE865A85D68597F0FF0FE78000EC6E
:102C6000B797001003A6872283A6C72297E0FF0F1D
:102C7000E780C05A2A86AE865A85D68597F0FF0F20
:102C8000E780C0E92A86AE865285CE8597E0FF0FA1
:102C9000E780C0582A86AE866A85E68597F0FF0FE2
:102CA000E780C0E7B797001003A6072383A6472352
:102CB00097E0FF0FE780805601473A86CA8697F073
:102CC000FF0FE780206A2A89AE89AA8A2E8B5E864A
:102CD000EE8697F0FF0FE780804D6353A0029307C5
:102CE000FCFF3E8CB797001003A6072283A647225D
:102CF0004A85CE8597F0FF0FE78040E2AA8A2E8BA7
:102D000093073C061307600C636CF7081149064DE6
:102D100025A8C6573EC0A68822580256925632872A
:102D2000B687E2467246D24522855D22B6502654C9
:102D300096540659F64965618280CA8B9397F96962
:102D4000BE8DB1BB014C114946579317470163D360
:102D50000706B3E76A018DCFB797001003A6872354
:102D600083A6C7235E85EE8597F0FF0FE78020449A
:102D700063410510B797001003A6072483A64724D4
:102D80005E85EE8597F0FF0FE780E04F6353050EF9
:102D9000A257635AFC00B3878741FD173ED429A090
:102DA0001549064D55B702D4C65793E70740BED81C
:102DB0000149014C6377990CB3872441BE89C657FA
:102DC000898BBE8C81C7630309008149630C0C00A9
:102DD0005686DA865E85EE8597F0FF0FE78000D491
:102DE000AA8BAE8D01468146025792573A85BE8521
:102DF00097F0FF0FE780204963470508C657939770
:102E0000B7483EC0CE8822585E87EE87E2467246BB
:102E1000D245228575286305090AC65793F707022C
:102E2000BDC79307500413071500BA8A624AD286B9
:102E30002A86D249CE853E85029433078041954744
:102E40003EC27D194AC0814829489357FC01336727
:102E5000EC0AD2865686CE852285EFF03FA1639498
:102E60000C04664AD64A464BB64B264C964CF25D4D
:102E700075BDA257A1D3B25795DFA257FD173ED417
:102E800015BF81492DBF9397FD69BE8D85BF9307FF
:102E9000500651BF13091500E2462A86D245130594
:102EA000000202944A85F247B307F540E3E497FE37
:102EB000664AD64A464BB64B264C964CF25DBDB59B
:102EC000664AD64A464BB64B264C964CF25DB9BD87
:102ED000197186DEA6DAE2CCE6CAEAC8EEC6AA8D89
:102EE0002EC832CA36CC3A8CBE8CC284468D3A8605
:102EF000BE863A85BE8597000010E780803355E195
:102F0000B797001003A6871C83A6C71C6285E685B9
:102F100097F0FF0FE78020376343050AB79700104B
:102F200003A6071C83A6471C6285E68597F0FF0F62
:102F3000E780E0276343A00AA2DCCAD8B797001055
:102F400003A6872483A6C7246285E68597F0FF0F32
:102F5000E780E025634AA00AB797001003A607257B
:102F600083A647256285E68597F0FF0FE780A031AD
:102F7000634C0508CED6D2D4D6D2DAD0DECE014606
:102F800081466285E68597F0FF0FE780C02F634C8E
:102F9000050802CE8A4793F70740638B071C01445C
:102FA00055A88A486A888D47378700101307C77A63
:102FB000E2465246C2456E85EFF02FE915A68A48D3
:102FC0006A889147378700101307077BE24652460D
:102FD000C2456E85EFF06FE721A68A47918B99CFA6
:102FE000378700101307077A91478A486A88E246B4
:102FF0005246C2456E85EFF04FE5DDA437870010DD
:103000001307877A8D47D5B78A473EC0EA88268856
:103010006287E687E2465246C2456E85EFF09F9E84
:103020006654465975AC6286E6860145814597002F
:103030000010E780608D2A8CAE8C85473ECE99BF0C
:10304000930704031808BA97130700032380E7FEC9
:10305000FD1405049337040213B7A40013471700A7
:1030600091C379FF6285E68597000010E7802020F4
:103070002A8997000010E780002B2A86AE86628599
:10308000E68597000010E7802088B79700109387A7
:1030900007D5B3E7F42003A847009C433E8AC28AC1
:1030A0003E86C28697F0FF0FE780C02BAA8B2E8B3F
:1030B00097000010E780C021AA8997000010E780E0
:1030C000002F2A86AE865E85DA8597000010E7809D
:1030D000A0832A8BAE8BB797001003A6871F83A609
:1030E000C71F97F0FF0FE780800C6355A008850984
:1030F0004E8597000010E780802B2A86AE86528589
:10310000D68597F0FF0FE78000186344A0000509FB
:103110008149D1E44A8597000010E780C0202A86C3
:10312000AE866285E68597F0FF0FE780E07DAA898D
:10313000AE84B797001003A6871F83A6C71F97F01A
:10314000FF0FE7804014634A050CB797001003A6F1
:10315000871F83A6C71F4E85A68597F0FF0FE780C0
:103160000005634CA00A93771900C5CB050975A02B
:10317000994435B5B797001003A6871F83A6C71FCC
:103180005A85DE8597F0FF0FE780E00FE34305F8EF
:103190006385090093F71900ADDF85099DBFFD47E1
:1031A00063EB8704FD14B7D7CCCC9387D7CCB3B7E8
:1031B000F9028D83BE86B3C7F7208607B387F9402F
:1031C0001307140093870703130604030C08330442
:1031D000B6002300F4FEA54763F33709B6893A84A5
:1031E0007DBF1307040314083697930600032300DA
:1031F000D7FEBE840504FD4763E587009387F4FF8F
:10320000EDF0FD4763EB8700930704031808BA97B6
:103210001307E0022380E7FE0504FD4763E487040B
:10322000B767666693877766B317F902898713577E
:10323000F941998FBE86B3C7F7208607B307F940D7
:103240001307140093870703130604030C083304C1
:10325000B6002300F4FE368989C63A847DBF3A84DD
:1032600059BF3A848A47898B8DEF8A47858B95CBE6
:1032700063040D02F24781E78A47B18B91CF930730
:10328000FDFF3E8D11A8930704031808BA97130792
:1032900000032380E7FE0504933704026373A4014F
:1032A000FDF3FD4763ED8700F247B9C393070403BD
:1032B0001808BA971307D0022380E7FE05048A484E
:1032C0006A88A2871810E2465246C2456E85EFF022
:1032D000CFB766544659B659265A965A065BF64BEE
:1032E000F650D654664CD64C464DB64D0961828098
:1032F0008A47918B99CB930704031808BA97130751
:10330000B0022380E7FE05045DBF8A47A18BC5DBC1
:10331000930704031808BA97130700022380E7FEF7
:10332000050471BF1D7186CEA2CCA6CACAC8CEC67E
:10333000D2C4D6C2DAC02A8AAE89328936CE3ACC15
:103340006384056A8144F24703C507006303056A85
:1033500013075002630DE50013841400CA86268605
:10336000CE85029AF24785073ECEA284E9BF850743
:103370003ECE014405A8930600026302D7069306D9
:1033800030026318D7001364040185073ECE854AD6
:1033900001A8814A31A01364240085073ECE854AE6
:1033A00063870A04F24703C707009306B00263026B
:1033B000D702E3F2E6FC9306D002E30ED7FC9306B5
:1033C00000036314D7021364140085073ECE854AB8
:1033D000C1BF1364440085073ECE854AD1B713644C
:1033E000840085073ECE854A65BF814A55BFF247B6
:1033F00003C70700930707FD93F7F70FA54663F48C
:10340000F6049307A0026305F704568BF24783C6C0
:1034100007001307E002638EE604F24703C70700C4
:103420009306C0066307D70A63F8E60893064007C9
:103430006305D70E9306A0076315D70E1364041017
:1034400085073ECEF9A86808EFF00F9D2A8B7DBF57
:10345000E247138747003ACC03AB070063460B00F3
:10346000F24785073ECE5DB713642400330B6041FD
:10347000C5BF13640440138717003ACE03C7170073
:10348000930707FD93F7F70FA54663F2F60293073C
:10349000A002E314F7F8E247138747003ACC83AA67
:1034A0000700B3EA0A0AF24785073ECEBDB76808AF
:1034B000EFF08F96AA8A95B793068006630DD70220
:1034C0009306A006631FD7041364042085073ECE2D
:1034D00089A813660410138717003ACE83C6170015
:1034E0001307C0066384E600328425A81364043001
:1034F00089073ECE3DA013660408138717003ACE15
:1035000083C61700130780066384E600328411A87F
:103510001364040C89073ECE29A0136404108507A8
:103520003ECEF24703C50700930750066305F50A30
:1035300063E6A712930760046305F51663FFA7020D
:1035400093073006631BF5065EDE09886300043AC4
:10355000854AE247138747003ACC938B1400CA860A
:103560002686CE8503C50700029A631D0438F247FC
:1035700085073ECEDE84F25BF9B393075002631FEA
:10358000F50013841400CA862686CE8513055002E2
:10359000029AF24785073ECEA28475B39307500482
:1035A000630BF50213841400CA862686CE85029A20
:1035B000F24785073ECEA28479B363E8A706930756
:1035C00080056308F506930720066304F506930754
:1035D0007004E319F5FC930795FB93B717001307E5
:1035E00095F9133717005D8F19C31314B428130707
:1035F000B5FB13371700D98F99C313640402E24750
:103600009D07E19B138787003ACC9843DC4322C097
:10361000DA885688CA862686CE855285EFF08FBE18
:10362000AA84F24785073ECE39BB93074006E31BC9
:10363000F5F6930785F893B71700130785FA133744
:103640001700D98FCDEF9307F006630BF5129307A0
:1036500020066309F5123D9829485DA093070007ED
:10366000630CF53463F5A70293073007631EF50674
:103670005EDE62DC66DA6ED6E247138747003ACC3C
:1036800003AC0700639B0A2A7D57E28759A493077E
:103690007006E302F5F463E0A70493076006E31302
:1036A000F5F0930760046301F522E2479D07E19B73
:1036B000138787003ACC9843DC4322C0DA885688C7
:1036C000CA862686CE855285EFF09F80AA84F2476F
:1036D00085073ECE8DB993079006E30CF5F493076A
:1036E000F006E308F5F47DBDE36EF5EA93075007B5
:1036F000E301F5F493078007E30DF5F265B5414862
:10370000930780056302F508930775F9B337F00056
:103710001307C5F93337E000F98F91C34D989377BC
:10372000044091C37998930775F993B7170013076D
:10373000C5F913371700D98FF5C793770420A1EB8C
:1037400093770410D1EB93770404CDCFE24713872E
:1037500047003ACC03C70700B306E04022C25AC074
:10376000D6889357F7013367D70ACA862686CE854F
:103770005285EFF0AF8FAA84F24785073ECEE1B6BF
:103780002148BDBF0948ADBF13640402B5BFE2477D
:103790009D07E19B138787003ACC9843CC4393D68F
:1037A000F541B3C7E60033C6B6003387D740B3B799
:1037B000E700B306D64022C65AC456C202C0C28829
:1037C00013D8F501B387F640CA862686CE85528582
:1037D000EFF0AF92AA844DB7E247138747003ACC87
:1037E0009843B306E04022C25AC0D6889357F701E7
:1037F0003367D70ACA862686CE855285EFF00F87B3
:10380000AA849DBF9377040881CBE24713874700C2
:103810003ACC0397070089B7E247138747003ACCB1
:1038200098431DBF937704208DEB93770410A1EF8D
:1038300093770404B5CBE247138747003ACC03C71C
:10384000070022C25AC0D6888147CA862686CE85FE
:103850005285EFF0AF81AA8405B7E2479D07E19B4F
:10386000138787003ACC9843DC4322C65AC456C219
:1038700002C0C2880148CA862686CE855285EFF0EE
:10388000CF87AA84D5BDE247138747003ACC984337
:1038900022C25AC0D6888147CA862686CE855285DE
:1038A000EFE0DFFCAA84C9BD9377040881CBE2472F
:1038B000138747003ACC03D7070061B7E247138765
:1038C00047003ACC9843B5BF13640402F9BB938B0D
:1038D0001400CA862686CE8513050002029AD68772
:1038E000DE84938A1700E3E467FFA5B18547D5BF5F
:1038F00093841B00CA865E86CE8513050002029A59
:10390000A28AA68B13841A00E3E46AFF8DB18507AF
:10391000368783C6070081C69306F7FF6DFBB38B1E
:103920008741937C044063840C00B3DB5B0B93778B
:103930002400BE8DA1E36AD831A85687B9B3938716
:1039400014003E8DCA862686CE8513050002029A93
:10395000A28BEA8413841B00E3E36BFFA28B425D1E
:1039600011A8BE8A050C13841400CA862686CE854B
:10397000029AA28403450C0019C5E3850CFE9387C7
:10398000FAFFE3900AFE63940D02F24785073ECEEC
:10399000F25B625CD25CB25D7DB2938A1400CA862F
:1039A0002686CE8513050002029AA28BD684138444
:1039B0001B00E3E46BFFD1BF13641402E2471387DB
:1039C00047003ACC984322C2A1473EC0D68841481E
:1039D0008147CA862686CE855285EFE03FE9AA84D4
:1039E000F24785073ECE85B2372A0010130A2A60B7
:1039F00091BA63E324031306F9FFCA86CE85014515
:103A0000029A2685F6406644D6444649B649264A77
:103A1000964A064B256182802686C5B7397106CE47
:103A200032D436D63AD83EDA42DC46DE38103AC6D0
:103A3000AE867D56AA85372500101305655FEFF029
:103A40007F8EF24021618280011106CE36872AC422
:103A50002EC6B2867D562C00372500101305456012
:103A6000EFF05F8CF240056182800D45731025BE3A
:103A70007D15E35D05FE0565130505807310453072
:103A8000736004307310003482800290FDBF4111D6
:103A900006C6E53F411106C62E88B68519CEB28707
:103AA000378700101307877BC2862A863785001068
:103AB0001305857C9D260545C93F378700101307F0
:103AC0008710BA87D5B7411106C622C4F32750BE66
:103AD00013970701634307000290EFE0BF95378417
:103AE0000010130484ED21A01C4082971104B787B5
:103AF0000010938747EEE369F4FEB240224441018F
:103B00008280411106C62E871C41B2853A85829774
:103B1000B24041018280011106CE26CA4AC84EC673
:103B2000AA89AE8432898347550189C722CC0144D2
:103B3000014525A01C41B2852685829741A083C7F7
:103B4000490105A883A70900894537950010130589
:103B500085258297130514000504635D2403E35053
:103B600080FE9307F4FFA69783C70700CD1793B78E
:103B7000170033878400834607002947E39EE6FC4D
:103B8000E1FFE35185FC83A70900B305A440269516
:103B900082974DBF6358250183A70900B305A9404B
:103BA00026958297635220037D19CA9483C7040027
:103BB000CD1793B71700238AF9006244F240D2442C
:103BC0004249B249056182806244CDBF1C419DCF0C
:103BD000411106C622C426C2AA8403A4F18139A0D9
:103BE00090409385440022853D37004809C81C4019
:103BF000EDDF83A7B181EDD7E39987FED5B723A089
:103C00000400B240224492444101828082804111EA
:103C100006C622C426C2AA842E84984193070008AF
:103C2000630EF7001C401387170018C03E94230250
:103C30009400B24022449244410182802E8579371B
:103C4000D5B7411106C6EFE06FA1B7470F009387C4
:103C50000724AA9733B6A7002E96634E0600BE85AA
:103C6000374500201305C58397C0FF0FE780A049A3
:103C7000B24041018280FD57370600803E96C5B7AD
:103C8000411106C6374500201305C58397C0FF0FB5
:103C9000E780C04FB24041018280797106D622D4BC
:103CA00026D24AD04ECE52CC56CAAA89AE84328A87
:103CB0003684413FAA8AFD57638AF40009CC37490C
:103CC0000010130969B103A4F18121A84E85EF40CA
:103CD000C00BAA84E5B737490010130929B0E5B72E
:103CE00000481DC41C40EDDF83A7B18199C3E3994F
:103CF00087FE2686CE8522850299E3030AFEA94720
:103D0000A307F10005469305F10022850299C9BF7A
:103D1000639C0A002685B250225492540259F249FB
:103D2000624AD24A45618280A13FEDB783A7F18103
:103D30001387F18121A0138707019C4B91CB1C4372
:103D4000E39BA7FE81E91C491CC323280500828050
:103D500091C108C38280411106C622C403A4F18127
:103D600011A0004809C45C40EDDF8297DDBFB2407E
:103D7000224441018280411106C60926EF00006BF2
:103D80000545B24041018280011106CE22CC2A8431
:103D9000A307A10085460146B6851305F100F53D50
:103DA0002285F240624405618280411106C622C428
:103DB00026C2AA84EF30707D2A8485463686AA857D
:103DC0002685E13D493F2285B2402244924441018B
:103DD0008280717106D722D526D34AD14ECFAA89C7
:103DE0002E898535AA8402C66000CA864E86A285C1
:103DF000374500101305E5C0EFF01FC52A8922855D
:103E0000F133913F89E84A85BA502A549A540A59A5
:103E1000FA494D618280AD35FDB7397106CE2ED29B
:103E200032D436D63AD83EDA42DC46DE4C102EC6C4
:103E30004D37F240216182804111B787F8BFAA97C0
:103E400093B7170013873181B3A7E7208397070043
:103E50006388B700A307B10001479306F1001DA8CE
:103E6000B547A307F10001479306F10065F71C4D24
:103E700093F70702EDFF83C706001CC105078506FF
:103E8000F5B71C4D93F70702EDFF83C706001CC171
:103E9000050785067DD741018280411101479306C0
:103EA000F10009A81C4DC18BF5FF1C412380F600D1
:103EB0000507850665DB0345F1004101828041115C
:103EC00006C622C426C24AC02A89AE84014409A873
:103ED000B307890083C5070003A5B182B13F05047C
:103EE000E34894FEB2402244924402494101828058
:103EF000011106CE22CC26CA4AC84EC6AA892E89EE
:103F0000014401A8930414004E94413F2300A400EF
:103F100026846357240103A5B182184D418B7DD3BC
:103F200003A7718211CF83A6B1821307000598DE23
:103F300013874603D45A93F686030566329714C353
:103F400009C82285F2406244D2444249B24905611F
:103F500082807554FDB783A7718289CF411106C64F
:103F600003A7B182232C070203A531828297B240B6
:103F700041018280828003A7B1821C4FA18BF5FF93
:103F80008280411106C683A7B18237870740638CC0
:103F9000E70013071002BA8639C983A7718281CB63
:103FA000B2404101828013072002BA86F5B722C4CD
:103FB000A3A3A182A3A1B182B7450010938565F5A3
:103FC00036843685EFC0DFB585452285EFC01FB04A
:103FD00003A7B182930700051CDF93074703585BD3
:103FE000137787038566B69798C3224455BF03A706
:103FF00071825DD722C423AC0702814536843685A1
:10400000EFC0DFACB7450010938565F52285EFC0A2
:104010007FE7A3A30182A3A10182224451B74111EA
:1040200006C622C426C2AE843684A3A5A1826349F3
:104030000600937726009DCFAD453285EFC0CFEFC8
:10404000634904009377240085CBAD452285EFC0FA
:10405000AFEEA68503A5B182EFD03FF78545373592
:1040600000201305857EEFF07FCCB24022449244BD
:10407000410182808945D1B78945C9BF411106C632
:10408000B797001083C70729B797001083C7C728C1
:10409000B797001083C7872895461146F165938529
:1040A000052037850740A53FB240410182808280CC
:1040B000A3870182828003C755009307F00F631323
:1040C000F70283C765008DE303C775008547631F4B
:1040D000F700A14763FEC70003C72500A387E1825D
:1040E000254582800145828001458280014582808C
:1040F000014582800545828085476396F506034722
:10410000460083475600A207D98F03C7F182638414
:10411000E70001458280411106C683471600638986
:10412000B70009476389E7020145B2404101828037
:104130008345260083473600A207DD8D93F70710DD
:1041400089CB13D5950013D6954893F5F507EFE085
:104150008FA37D55CDBF1306400681450145EFE095
:10416000AF970545D9B705458280379500101305EF
:1041700045E7828005476390E504B28783461600D1
:10418000639DB60283464600034756002207558FBB
:104190009D466304D70001458280411106C69306FF
:1041A000600A379600101306C6DCBE85EF10104873
:1041B000B240410182800545828001458280854769
:1041C0002300F500379500101305C5DA828003C778
:1041D000050083C71500A207D98F03C72500420732
:1041E0005D8F83C73500E207D98F1307004B6383C8
:1041F000E7008280411106C6014681457D55EFE00A
:104200008F98A3A5A184A3A3B1848280411106C67F
:10421000EFD0DFC4B7470F0093870724AA9733B6C0
:10422000A7002E96634B0602BE851385F18497C0C6
:10423000FF0FE78040ED19CD81457D55EF109008C7
:104240000145EF2040056DF91385F18497C0FF0FFC
:10425000E780C0F3B24041018280FD5737060080FD
:104260003E96D9B7411106C603C5B183EFC05F873B
:10427000B24041018280411106C622C426C283A7F2
:10428000F183B9CB7377043093963700B316D028F7
:10429000F19B2FA6D744758E6DFE0F0030039387D8
:1042A000F183D8C3238E01829C430F003003238007
:1042B0000700218B732007300144814403C5B1837B
:1042C000EFC08FFE11ED014481442285A685B240E6
:1042D00022449244410182801304803E8144F9BF0C
:1042E00003C5B183EFC0CFFFCDB7011106CE22CCFD
:1042F00026CA4AC84EC652C456C22A892E84B284DF
:10430000B6893A8ABE8AEFD07FB53308A400333429
:104310008800B387B400C2853306F4006341060207
:10432000D6875287CE864A85EFD0EFE9F2406244C5
:10433000D2444249B249224A924A05618280FD55DF
:10434000370600802E96E9BF011106CE22CC26CA80
:104350004AC84EC652C42A8AAE893289B6843A8483
:10436000EFD0EFD4A2872687CA86D2854E86B53F86
:10437000F2406244D2444249B249224A05618280F5
:10438000411106C681451385F18497C0FF0FE78070
:1043900060C739E583A7F183A9C373770430939687
:1043A0003700B316D028F19B2FA6D744758E6DFE2B
:1043B0000F0030039387F183D8C383C6C18393F67C
:1043C000F60F8545238EB1829C430F003003238076
:1043D0000700218B7320073085CEB24041018280D7
:1043E00022C481457D55EF10E06D0145EF109063CB
:1043F0002A841385F18497C0FF0FE78020D91DC060
:1044000083A7B18495C303A5718482972244F1B731
:104410002E8737460010130666271305803E814518
:10442000253765BF224455BF224445BF411106C60A
:1044300022C4B70700D08043EFD06FC7EFD0EFEAB8
:1044400063108508B797001083C747298145014548
:10445000EF20502F83A7F184C1C70545EFC05FE768
:10446000A38DA182B7450010938505381375F50F0C
:10447000EFC00FEB854503C5B183EFC02FE539458C
:10448000EFC06FE82A8435C10545EFC08FC3AA8508
:104490001385F183EFC01FF20146B74500109385E5
:1044A00045263945EFC04FEF8545374500201305B8
:1044B0000580EFF0BF872285B2402244410182800F
:1044C000B78600109386C64237960010130646EA58
:1044D0009305600C3795001013054582EFF08FDBD4
:1044E0001385F184EFC0BFE28DBF9387F18323A0D2
:1044F000070023A207000547814637460010130630
:1045000066271305803E814581351345F5FF135419
:10451000F501E35205FA49BF411106C60145EF1006
:10452000304CB24041018280411106C622C426C2ED
:104530002A84AE84D53741C10145EF10B04E3DCD40
:10454000EFD0DF91B7470F0093870724AA9733B6C0
:10455000A7002E9663420604BE851385F18497C09A
:10456000FF0FE78040BA31CD453F09C50145EF1047
:10457000704B05E981457D55EF10C054F5573E84D9
:104580001385F18497C0FF0FE78040C02285B240B9
:104590002244924441018280FD57370600803E96B6
:1045A00065BF2686A2850145EF10304A2A8469F945
:1045B000F5573E84F1B7F5573E84C9BFF5573E84A1
:1045C000F1B7F5573E84D9B7011106CE26CA4EC6BB
:1045D000AA89AE84EFD09F88B7470F00938707243E
:1045E000AA9733B6A7002E96634F0600BE851385A3
:1045F000F18497C0FF0FE78000B119E9F240D2447F
:10460000B24905618280FD57370600803E96F9BFAA
:1046100021375DE181460147A3A9D182A3ABE182A5
:104620001385F18497C0FF0FE78040B6C1BF814575
:104630007D55EF1020490145EF10F045F13D41C592
:104640000145EF10F05B31C1635C9406338984400F
:104650000145EF10F05A634325014A8569D92A863E
:10466000B38589000145EF1070532A8981457D5536
:10467000EF1040450145EF1010424A94EFD00FFE75
:10468000A3A9A182A3ABB182C1B7EFD02FFD03A72D
:10469000318383A67183B7A7070093870712BA9760
:1046A00033B7E70036976363B702E39FE5F8E3FDAE
:1046B000A7F862444249ADB722CC4AC8014469B761
:1046C00062444249B1BF6244424999BF624442498F
:1046D00081BF37950010130505F2828037950010D1
:1046E0001305C5EC8280411106C622C42A84B7474F
:1046F000002083C7C7579DCB29E0B7470020938789
:10470000C711130790402391E70085478507860767
:10471000B3C70708374500201305C51193E70730D5
:104720002310F500B240224441018280C54537453F
:1047300000201305C5577D20C1B7954763EE87025A
:10474000B7970010938747EB3344F420104081471C
:104750004947E36DF7FA3307F60083460700DDD6D5
:104760008507374700201307C71133A7E720231019
:10477000D70093F7F70FE9BF01456DB7397106DE32
:10478000156513057534EFD0DFBEAA870546A5452C
:104790006800829791476314F500014735A8B796E2
:1047A00000109386468B37960010130646F5930546
:1047B000F002379500101305C58BEFF0AFADBD4784
:1047C000998F938707038A9783C6C7FD938771855F
:1047D000BA972380D70005079D47E3D2E7FEF25042
:1047E0002161828099C1014715A8411106C6B7967B
:1047F00000109386C69037960010130646F3930573
:10480000B003379500101305C58BEFF0AFA8938761
:104810007703B306E5002380F60005079387F5FFCD
:104820006379F702BD4763E6E70293561700938763
:104830007185B69783C707000546B376E6408A06BA
:10484000B3D7D740BD8BA546E3C3F6FC93870703D8
:10485000C9B73A952300050082809376F5079357F0
:1048600075003747002033A8F620160813074714B1
:1048700042972301A70013C51700A300A700A301B7
:104880000700231CB700A30DC700B9EF139636002D
:10489000110637071050130707083A9637470020CC
:1048A000B3A5F6209605130747142E9710C7374770
:1048B000002033A6F6201606130747143297184730
:1048C000232007009DEE37470020B3A7F6209396DC
:1048D000570093074714B69723A2070037071050D5
:1048E00013070710D8C78280370610501306060832
:1048F00033E6C6203747002013074714429710C7F6
:104900007DB79DE31387F6FF0E071107370610509A
:104910002106329737460020B3A6F6209606930765
:104920004614B697D8C382801386F6FF3707105017
:1049300021073366E62037470020B3A7F620939679
:10494000570093074714B697D0C3828083578501D9
:104950009387F7039983939667000346B501094748
:10496000630DE60083A731865CC5B697A3A1F186E7
:104970003717105063F6E700828093967700DDB713
:10498000411106C6B79600109386469137960010DF
:10499000130606FA93052005379500101305859533
:1049A000EFF04F8F011106CE22CC26CA4AC84EC660
:1049B0009374F50713547500B3A7842096073747FF
:1049C000002013074714BA97BE89413D81E8F240A1
:1049D0006244D2444249B2490561828083D589014B
:1049E0004E85AD3783C7B901EA0703A7C900B706EB
:1049F0001050358FD98F9397F72903A749001CC30F
:104A0000F9B7411106C69377F5071D81B3A7A72013
:104A1000960737450020130545143E955524B240AE
:104A200041018280411106C601E985453945EFC043
:104A3000EF89B24041018280B79600109386869C30
:104A400037960010130606F9930570193795001074
:104A500013058595EFF00F84411106C609E901465B
:104A6000814513050008713FB24041018280B7962D
:104A700000109386869C37960010130606F893055F
:104A8000101A3795001013058595EFF0AF80B72702
:104A900011504167F8C78280411106C622C426C260
:104AA00035E92A84F92AB7041150B147BCDC130652
:104AB000F00FB70500209385A52E3945EFC0CF8DA7
:104AC0001306000481453745002013054514EF30D7
:104AD000C0120146930500040145E93501469305DE
:104AE000000413050008EFF0FFEB97B0FF0FE7801D
:104AF00060708547BCC0B7070020FCC4F567C107DC
:104B000023A8F408228561370545B2402244924427
:104B100041018280B79600109386869C37960010DC
:104B2000130646FB9305301637950010130585953F
:104B3000EFE05FF6A38FB18499C5B727115037070F
:104B4000020023A8E708828083C7050013F7F70156
:104B500009EB93F7070691E703C715009547630331
:104B6000F700828003C72500B707115098C38280E1
:104B700003C635000D8A05476305E602411106C6E6
:104B8000AE8703C7450083C55500A205D98D93F5AF
:104B9000F57F03C52700EFF0FFE00545B240410176
:104BA000828001458280411106C697B0FF0FE780E1
:104BB0006064B24041018280411106C611E92E8530
:104BC000B2853686EFF0FFE30545B24041018280B1
:104BD000B79600109386869C37960010130606F74A
:104BE000930540203795001013058595EFE09FEA67
:104BF000411106C613F5F50701E993D7750085EB5A
:104C00000947B7271150B8D79D813325B520160520
:104C10001316B0288145B7470020938747143E9567
:104C200097C0FF0FE780C0ADB240410182800547C9
:104C3000C9BF13F5F50711E18280411106C69D81B8
:104C40003325B5201605B7470020938747143E95B6
:104C5000A30105000146FD759385F57F97C0FF0F01
:104C6000E78000AAB2404101828001A803C7050085
:104C70002300E500850505053E869307F6FF7DF6D2
:104C80008280411106C6B7070010372702401CC3B7
:104C9000373702401CC3B70702409C473707001054
:104CA000B377F740EDFB0566814537051050EF20DF
:104CB000D074B70711502547F8DBB240410182801C
:104CC000411106C622C426C24AC02A84AE84328953
:104CD0008347A501A1E7231A2401231B040085476C
:104CE000230DF40004C8228597C0FF0FE780C08B16
:104CF00019C5B72711503707020023A8E7082285F6
:104D000097C0FF0FE780008D05C98547230EF4008B
:104D1000B2402244924402494101828083452500E9
:104D200037950010130585ABEFF02F8F228597C0C4
:104D3000FF0FE780A09B45B7228597C0FF0FE78054
:104D4000A0A1F9B7411106C622C426C2AA84014413
:104D500031A8998F96073797001013078708BA97DD
:104D6000DC472685829705041374F40F03C7B187C7
:104D7000A2879306170063C88602E37CE4FC83A73E
:104D8000F18713175400BA97E1FF13065022B79525
:104D900000109385450537950010130505AFEFF01A
:104DA000CF8702903DA81306400581453745002076
:104DB000130545D1EF20706437470020130787D1D2
:104DC000FD571CC35CC31CC75CC7374700201307D3
:104DD00087D21CC35CC31CC75CC71CCB5CCB1CCF7D
:104DE0005CCFB2402244924441018280411106C608
:104DF000913FEF106012B24041018280411106C61E
:104E000022C426C24AC02A892E84B284C849EF101F
:104E100080125C48268685454A858297B2402244A6
:104E20009244024941018280797106D65AC82A8B80
:104E30001385F5FF1375F50FEFF05F8A01C966C2A0
:104E4000834C150089476385FC02924C1306603D34
:104E5000B79500109385850237950010130505AFAF
:104E6000EFE0BFFB02900145B250424B45618280AA
:104E700022D426D24AD04ECE52CC56CA5EC662C486
:104E800003477500B7470020938747D1135657480B
:104E9000120683C60700BD9AD18E2380D700135710
:104EA0006748160793F6F60F93F6F6FD558F2380A5
:104EB000E700130A95000347250083473500A20742
:104EC000D98FB30BF50095A2034C3A0083470A0033
:104ED0003E9AA5A21306103FB79500109385850250
:104EE00037950010130505AFEFE03FF30290014541
:104EF000225492540259F249624AD24AB24B224C8D
:104F0000924C9DB733848A401604B797001093875C
:104F100087083E941C484E86D2855A8582972A89F6
:104F20009337950093C7170033B7A90013471700AD
:104F3000F98FB9EB850493F4F40F03C4B187A68A03
:104F40009307140063CE970CE3FE84FA03A4F18761
:104F5000939754003E945DFC1306A03FB795001054
:104F60009385850237950010130505AFEFE0FFEA42
:104F700002900145225492540259F249624AD24A9F
:104F8000B24B224C924CCDB585476300FC04814660
:104F900063FE860783472A00B69793F7F70F3747D4
:104FA0000020130747D13E97034647001307F00F31
:104FB0006316E60237470020130747D1BA972382CA
:104FC0009700850693F6F60FE1B71848B76700100B
:104FD00093872764E31DF7FA668C55BF130690414B
:104FE000B79500109385850237950010130505AF1E
:104FF000EFE0BFE202900145225492540259F24977
:10500000624AD24AB24B224C924CB9BDA6864A861D
:10501000D28537450020130585D2EF20A0194A9A82
:1050200083C7B187850763C55703637B7A05034749
:105030001A00AD47E30AF7E8054C03471A00914709
:10504000E31AF7E8B3894B41B3C909088144F5B5C0
:1050500013068042B795001093858502379500109E
:10506000130505AFEFE07FDB029001452254925417
:105070000259F249624AD24AB24B224C924CEDB3E9
:105080000545225492540259F249624AD24AB24B1F
:10509000224C924CD1BB82808280014582800145A6
:1050A0008280411106C622C426C2AA842E8403C56A
:1050B000250083C73500A207A18319476388E70E3F
:1050C0006367F7020947638AE7060D47638FE70ABC
:1050D0000547639CE700EFF0CFDF2A8621C1C94670
:1050E000A2852685EF0090548DA80145BDA01D47DF
:1050F0006385E7043D476391E702EFF00F872A8657
:1051000069C18346250083473500A207DD8EA2854D
:105110002685EF00B05191A0014581A01306A04360
:10512000B79500109385050137950010130505AF5D
:10513000EFE0BFCE029001450DA009476384E7026E
:10514000B93F2A8649C18346260083473600A20715
:10515000DD8EA2852685EF00704DB2402244924438
:1051600041018280EFF08FD72A8671FD1306104629
:10517000B79500109385050137950010130505AF0D
:10518000EFE0BFC902900145C9BF83C54500834711
:105190005400A207DD8DEFF00FD52A861DC583468A
:1051A0000500A2852685EF00704845BFEFF0FFEEB1
:1051B0002A8611CD83460500A2852685EF0010477B
:1051C00069BF014559BF014549BF014579B701454F
:1051D00069B78280828082808280B747002093876F
:1051E00047D103C517003335A0008280B7470020A0
:1051F00003A547D1135525488280B747002003C532
:105200005783130515F03335A0008280011106CEB7
:1052100022CC26CA4AC84EC62A892E84AE89F13FBE
:10522000AA84631A050C2DC0130640058145374535
:105230000020130545D1EF20501CA3810188138560
:10524000F186EFC0CF8C1384F186A3A58186374504
:1052500000201305C582EFC00F97374400201305C7
:105260008481EF20F00913048481A3AB8186B747C2
:1052700000109387E71B99C71385B187EFE03FF4D0
:10528000A3AFA186014425A81306201DB7950010E1
:105290009385850737950010130505AFEFE0FFB73D
:1052A000029091A8998F96073797001013078708E7
:1052B000BA97DC4385C7829705041374F40F03C7BC
:1052C000B187A2879306170063CF8602E37CE4FCD4
:1052D00083A7F18713175400BA97E1FF1306001F45
:1052E000B79500109385850737950010130505AF16
:1052F000EFE0BFB202902685F2406244D2444249B8
:10530000B24905618280B7470020A38A2783CE85F2
:105310004A85EFF06FF8AA8409C54A85EFF08FF04F
:10532000D9BF1306801FB795001093858507379561
:105330000010130505AFEFE05FAE02906DBF4111A5
:1053400006C626C24AC0B747002083C757833E8996
:1053500083C7250093F7070795EB22C42E84B74730
:105360000020938747D183C527002285EF10F05492
:10537000AA8405CDA2854A85EFF08FFFAA84224436
:105380002685B24092440249410182801306B05002
:10539000B7950010938505FE37950010130505AFEE
:1053A000EFE0BFA702908144E1BF1306C050B7955C
:1053B0000010938505FE37950010130505AFEFE04B
:1053C000DFA5029022446DBF797106D622D426D281
:1053D0004AD04ECE52CC56CA5AC85EC6AA8A2E842D
:1053E000B289368A3A8BBE8B0149B9A81306704E32
:1053F000B7950010938505FF37950010130505AF8D
:10540000EFE0BFA1029081442685B250225492540D
:105410000259F249624AD24A424BB24B45618280FC
:105420001306804EB7950010938505FF3795001041
:10543000130505AFEFE07F9E0290F9B72380BB0014
:10544000834704003E940509635A39030347140057
:105450009547E31DF7F8834534008D89E39845F9B6
:10546000A2855685EFF0BFEDAA845DD9834524005F
:1054700093D77500E1F72300BB00D9B7854469B71E
:10548000411106C613F5F5079D813325B520130597
:105490000503B7470020938747D13E9583A5B18682
:1054A0001105EF10B034B24041018280411106C6AF
:1054B00013F5F5079D813325B52013050503B7477F
:1054C0000020938747D13E9583A5B1861105EF1043
:1054D0009039B24041018280411106C622C426C2E1
:1054E000B747002003C5578313F4F50793D475001D
:1054F000B7470020938747D1B327F420A69783C7E7
:105500004703858BA1E7B7470020938747D1B3278F
:10551000F420A69703C7470313671700238AE702FF
:10552000EFF08FE931E1B7470020938747D133246B
:10553000F420269483474403F99B230AF40283470B
:105540004403ED9B230AF402029039A813069053FA
:10555000B7950010938505FD37950010130505AF2D
:10556000EFE0BF8B02900145B240224492444101DA
:105570008280411106C622C426C2AE8413F4F50708
:10558000B747002003C55783EFF08FE69D80B747EC
:105590000020938747D1B327F420A69703C747037A
:1055A00013672700238AE70203C74703136717001F
:1055B000238AE702B2402244924441018280411191
:1055C00006C622C426C2AE8413F4F507B7470020EE
:1055D00003C55783EFF0EFE59D80B7470020938721
:1055E00047D1B327F420A69703C74703759B238AA7
:1055F000E70203C74703799B238AE702B2402244AC
:1056000092444101828093F7F5079D81374700203E
:10561000130747D1B3A7E720AE9703C54703135538
:1056200015488280797106D622D426D24AD02A899A
:105630002E840145EF0030108347040093F70706DE
:1056400013070006638BE706130700046386E70869
:10565000034704007D8B85466306D7288946630689
:10566000D73263190742130700026384E708E5E3B2
:10567000834714001547638EE70E636DF70C0547EB
:105680006385E7220D476387E71E639A0724B747C0
:10569000002083C747D113D7270093D75748098BDA
:1056A000D98F2317F10089461306E100A2854A85A8
:1056B000EF00C0778547BE84C5A61306402DB79579
:1056C00000109385C50337950010130505AFEFE073
:1056D000CFF402908144C9A6374500101305451741
:1056E000EF007005228685454A85EFE0BFA8AA84B1
:1056F00065A60347440083475400A207D98FBD46DF
:1057000063E3E63A3747002093F7F70F130747D1D3
:10571000BA9783C7470003C7B18763F9E70083A53A
:10572000F1879607BE9591ED8144BDA693061700BB
:1057300063CDF636998F9607B79500109385850847
:10574000BE9522864A85EFF06FEBAA84B1A602903F
:10575000814499A621476383E70425476381E706CF
:105760001947639EE716A2854A85EFF09F93AA84A6
:1057700025A62285EF00E07C834524004A85EFF0D2
:10578000AFADB7470020938747D103C70700136722
:1057900027002380E7008547BE84FDACB747002083
:1057A000938747D183C717002307F1008546130667
:1057B000E100A2854A859D2D8547BE84F1AC4ECE81
:1057C00083472400BE89B7470020938747D183C70A
:1057D0001700638A3709B7470020938747D183C7EB
:1057E000170095E3B7470020938747D1A38037017F
:1057F00063890906CE854A85EFF00FE3AA840DCDB3
:10580000EFF03F9D8DA052CC56CA81454A85EFF0FE
:105810006FB24A85EFF02FB9B7470020938747D181
:105820003E8A83C72700BE8A4A85EFF0AFD12301A5
:105830005A01624AD24A7DB713064032B79500102A
:105840009385C50337950010130505AFEFE0EFDC36
:105850000290B7470020938747D1A3800700F24901
:1058600025ACEFF03F97A2854A8585238547BE8406
:10587000F2491DA40347240083473400A207D98FAF
:1058800005476384E700814401ACB7470020938754
:1058900047D103C70700136787002380E700A2856D
:1058A0004A8525238547BE84C5AA0347240083472C
:1058B0003400A207D98F05476384E7008144E9AA31
:1058C000B7470020938747D103C707005D9B23801C
:1058D000E700A2854A85D5298547BE8475AA02902E
:1058E00081445DAA0347440083475400A207D98F2F
:1058F000BD4663EEE61A3747002093F7F70F13070C
:1059000047D1BA9783C7470003C7B18763F8E70455
:1059100083A5F1879607BE95638D051822864A8573
:10592000EFF0CFCDAA84631905168347040093F7DF
:1059300007066393071683471400D9170547636D5D
:10594000F7140145CD2B03471400A9476304F70260
:10595000A2854A859D298547BE843DAA93061700E6
:1059600063CBF614998F9607B79500109385850839
:10597000BE956DB72307010085461306E100A28599
:105980004A856D218547BE8401AA8345440013F7EB
:10599000F50713D6750093F605078DEEB746002080
:1059A000938646D13327D72032970347470183C6D2
:1059B000B1876370D70483A6F18716073697BA8438
:1059C000A1CB638C040E2286A6854A85EFF00FC317
:1059D000AA84D9A013065039B79500109385C50342
:1059E00037950010130505AFEFE02FC302908144F7
:1059F00065A013861600634BE600158F1607B79651
:105A00000010938686083697BA845DBF81444DBFE7
:105A10008347140005476384E7020D476381E7026B
:105A2000BDE74A85EFF03FBE2317A1008946130664
:105A3000E100A2854A85DD2E8547BE84B1A8834654
:105A40002400034734002207558F19E70547638C6C
:105A5000E7024A85EFF0FFB1BDC02286A6854A85E0
:105A6000EFF0CFB90145C129B7470020938747D14F
:105A7000DC5B93D78748BE8485E3A2854A85B1263F
:105A80008547BE8411A84A85EFF07FB3F1B7029035
:105A9000814419A0029081442685B2502254925428
:105AA0000259456182808144C5BF8144F5B7814474
:105AB000E5B78144D5B78144C5B78144F1BF854777
:105AC000BE84D9BF011106CEEFF02FF36304052485
:105AD00022CCE9A01147639CE722B747002083A7A7
