:020000041000EA
:10000000F2EB8871CC8B0010EC8B0010A800001074
:1000100090A31AE7D3DEFFFF420101114403000061
:100020003600001000200820FF04000004C4000077
:10003000793512AB79A8975100109381F1D317212C
:100040000810130121FC173500101305B55F73105C
:100050005530732540F135ED1707000013070705EC
:100060000C4391C55043144731071D28D5BF973520
:1000700000109385E57B174600101306265921A032
:1000800023A005009105E39DC5FEEF30F00985240E
:10009000EF3010060290FDBF884108C2910511069D
:1000A000E36CD6FE82800100EC8B00100000002083
:1000B0002C38002018C40010000008200000082080
:1000C00018C40010001008200010082000000000D4
:1000D000828021651305C5DF02859307000089CF63
:1000E000974500109385C544178500001305859B2F
:1000F000170300006700000082804111B787F8BF36
:10010000AA9793B7170013873181B3A7E720839786
:1001100007006388B700A307B10001479306F10009
:100120001DA8B547A307F10001479306F10065F745
:100130001C4D93F70702EDFF83C706001CC105079E
:100140008506F5B71C4D93F70702EDFF83C7060040
:100150001CC1050785067DD741018280011106CEAD
:1001600022CC26CA2A84AE8481473DA0A307B100D1
:1001700001479306F10011A81C4C93F70702EDFF0D
:1001800083C706001CC0050785067DD783C704000A
:10019000CD1793B71700850483C5040089C5F9F707
:1001A0002285A13FE5B7F2406244D24405618280D6
:1001B000557186C7A2C5A6C3CAC12A89AE84B73500
:1001C00000209385C55B0A85292D014431A0B30524
:1001D00089000A85292D4104E34B94FEBE402E443C
:1001E0009E440E49696182805D7186C696C49AC23A
:1001F0009EC022DE2ADC2EDA32D836D63AD43ED25F
:1002000042D046CE72CC76CA7AC87EC673272034D6
:1002100073241034A147630BF7029307B7FF93B71A
:100220001700930697FF93B61600D58FB1CFA2851E
:1002300037850010130505AAEF30B021B7850010EF
:10024000938585AD37850740113F01A08547630938
:10025000F502110473101434B640A64216438643C7
:1002600072546255D2554256B2562257925702588E
:10027000F248624ED24E424FB24F6161730020305D
:100280002E85C1453537F1B7BA853785001013057E
:1002900005B0EF30101C01A0411106C6F327003055
:1002A0009397B7489397C7487390073073101534E6
:1002B00089659385055837850740EF1030378945A4
:1002C00011453D2B89451545252B81460546A14500
:1002D00037850740EF10503037850010130505B201
:1002E000EF30501073002030B24041018280411144
:1002F00006C6EF30700E1305007DEF106073378572
:100300000010130545B5EF30F00DB70700109387C7
:10031000871E73905730370500101305C532AD3F67
:1003200001A0AA850545730000008280597186D618
:10033000A2D4A6D2B7870010938787C29043D44334
:100340009847B2C6B6C8BACAD847BACC83C707015D
:10035000230EF104814559A07C00FD569843910776
:1003600013577728E30CD7FE1347F7FF13171760CF
:100370000D83BA971808998F6000A29729472380A8
:10038000E700A3800700A28537850010130545BB51
:10039000EF30300CA28537850740C9338D47639A0B
:1003A000F402378500101305C5BCEF30B003130508
:1003B000401FEF10E067B737002083C7C75B93F794
:1003C000F70FA305F10037850010130585BFEF3047
:1003D00070011305007DEF10A065A68593841500BC
:1003E00037850010130585B7EF30B00637666666AF
:1003F000130676663396C402098693D7F4411D8EA0
:100400003346C62006063386C440E0005106B78551
:100410000010938585B92285EF306046228511371B
:10042000B7475441938747143EC689679387A7030C
:100430002318F100230901000144BD47E3CE87F0F2
:1004400068007D571C41110593D77728E38CE7FEA0
:1004500093C7F7FF939717608D833E951C081D8DFA
:10046000930704068A9703C6C7FEB78500109385D5
:10047000C5BA7C003E95EF30804005047DBF014742
:10048000B1A093172700B346A7203346B7200346F1
:1004900006002380C600938617003306D500AE966B
:1004A00083C606002300D600938627003306D500B6
:1004B000AE9683C606002300D6008D07B306F5006E
:1004C000AE9783C707002380F60005078D47E3FA40
:1004D000E7FA91471307B0026362F7124111BDA812
:1004E000139727001386C7FF931626003346A620CE
:1004F000034606000348C100B3C5A72033460601E2
:100500002380C500138616002A96834506000348FB
:10051000D100130617002A96B3C505012300B600C3
:10052000138626002A96834506000348E100130639
:1005300027002A96B3C505012300B6008D06AA96AA
:1005400083C606000346F1000D072A97B18E2300EB
:10055000D70085071307B0026360F70A9386F7FF99
:1005600013972600B3C6A62003C806002306010180
:1005700093061700AA9683C50600A306B10093064A
:100580002700AA9603C606002307C1000D072A9775
:1005900083460700A307D10013F7370031F3230682
:1005A000B100A306C1002307D100A30701013787CB
:1005B00000101307874ABA9583C505002306B100CA
:1005C0003A9603460600A306C100BA9683C6060003
:1005D0002307D100429703470700A307E10093D602
:1005E0002700378700101307C749369703470700CE
:1005F000B98D2306B100EDB541018280828081482A
:1006000015A8B3C6B820BE9603C806003347152107
:100610003347F7203297034707003347E80023802A
:10062000E600850793F7F70F0D47E37CF7FC850895
:1006300093F8F80F8D4763E417018147F5B782807F
:10064000014605A8B3C6A720B29683C50600378722
:1006500000101307874A2E97034707002380E60000
:10066000850793F7F70F0D47E37EF7FC0506137632
:10067000F60F8D4763E4C7008147F5B78280834753
:10068000150003475500A300E50003479500A302AA
:10069000E5000347D500A304E500A306F500834762
:1006A00025000347A5002301E5002305F500834746
:1006B00065000347E5002303E5002307F5008347B2
:1006C00035000347F500A301E5000347B500A30784
:1006D000E50003477500A305E500A303F50082804C
:1006E0001357750093173700998F8A07998F06055E
:1006F0003D8D1375F50F8280797106D622D426D2EE
:100700004AD04ECE52CC56CA5AC85EC62A8B014A2F
:10071000A5A033446A21834B0400834A140033C5E7
:100720007A018349240003493400B3443501B344BA
:1007300099007D37B3C7A400B3C7FB002300F400C2
:1007400033C53A01713F258DB3CAAA00A3005401F5
:1007500033C529017137258DB3C9A900230134019F
:1007600033457901B53FB3C7A400B344F900A301F1
:100770009400050A137AFA0F8D47E3FC47F9B2504B
:10078000225492540259F249624AD24A424BB24B25
:1007900045618280411106C622C426C24AC0AA848D
:1007A0002E892E86AA850145993D05442685493D19
:1007B0002685F135A947630CF4002685353F4A8626
:1007C000A68522852D3D05041374F40FC5B74A860E
:1007D000A68529452D35B240224492440249410163
:1007E0008280411106C66139B240410182804111C7
:1007F00006C6AE87AA853E85713FB2404101828020
:10080000B78703409107B347F52098431347070480
:100810001377070C8566BE9698C23787024033650A
:10082000E5204CC10D67BA971307001098C382806A
:10083000397106CE22CC2A842ED232D436D63AD87A
:100840003EDA42DC46DE378500101305C5C3EF30C3
:10085000603901CC4C102EC62285EF30203B378505
:1008600000101305C5B1EF30E0370545EF30000843
:1008700073750430B7470020938777CE13973700FE
:100880003317E028F19BAFA6E744F98EEDFE0F0089
:10089000300382800F003003B74700209387C7CD15
:1008A000A38507002189732005308280411106C687
:1008B00022C426C24AC0AA842E843289553F935747
:1008C00034003387F4008346070093777400B3172E
:1008D000F02833F6F60009EE93F7F70FD58F2300D3
:1008E000F7004D3FB24022449244024941018280C8
:1008F000A2854A85353F011106CE22CC26CA4AC8B8
:100900004EC652C42A89AE893284B6843A8A8D375B
:1009100011A0050463E68402135634004A96034886
:10092000060093777400B317F028B378F800E392C9
:1009300008FE93F7F70FB3E707012300F60011A0B5
:100940007D54893F9357F401B3F7370191EB22852A
:10095000F2406244D2444249B249224A056182804F
:100960005285F935374700200345C78193071500A5
:1009700093F7F70F230EF7805D476377F700B747CC
:1009800000204147238EE7808280411106C6AA8558
:10099000378700101307C7C4FD466146374500205E
:1009A00013058557893FB24041018280014719A84C
:1009B0000F003003B74700209387C7CDBA97238035
:1009C00007000507FD47E3F5E7FE828093574501E1
:1009D000FE07135715005607B706E07F758FD98FAE
:1009E0001357B5005207B7061000758FD98F37F728
:1009F0000F00798D5D8D82809357B500B207056732
:100A0000F98F135745002E079316B028758FD98F8D
:100A100013578500260713770760D98F1357A50052
:100A2000220713770710D98F135765001E07137716
:100A30000708D98F135775001A0713770704D98F42
:100A4000135715000E0713778703D98F15810A05F1
:100A500011895D8D8280035705009356270093F717
:100A6000E60013567700418AD18F131637001376AC
:100A70000602B2971356170093750604AE979315A6
:100A8000170093F50508AE9713760630B2970A075C
:100A900013770740BA971317B028F98E958F3E95B4
:100AA000828015C2060593970501C98F73B027BED2
:100AB00005054177F98D4D8D733025BE73A007BEB6
:100AC000732005BE8280060593970501C98F73B018
:100AD00007BE0505C177FD8D4D8D733005BE828043
:100AE000F3275030F19B130545033345F5200CC126
:100AF0000F0030030F003003B74700209387C7CDA6
:100B0000A3840700218A732006308280411106C623
:100B10003385A5401307F57F05078567F91763EF50
:100B2000E7009377150099EBC13D13651500131588
:100B3000D52833450508B24041018280B7860010B0
:100B4000938686C6378600101306465C930580128E
:100B500037850010130585C9EF20F059411106C6ED
:100B60007537E1775D8D33450508B24041018280DC
:100B700093574500F3A707BEC1833D893315A028CD
:100B80007D8D3335A0008280411106C6193FB240E9
:100B900041018280411106C62E86B315A028158119
:100BA000E537B24041018280935745003D893315B6
:100BB000A0284205C98F73A027BE8280F32750303A
:100BC000F19B130545033345F5200841828041110F
:100BD00006C6ED37B73700209387C75C1D8D1335E8
:100BE0000503B24041018280411106C622C426C2DB
:100BF0004AC0AA842E84737704303A89B74700200C
:100C0000938757CE139737003317E028F19BAFA691
:100C1000E744F98EEDFE0F0030034D37B737002063
:100C20009387477E6304F500631C85004A86A2858E
:100C300026857D35B240224492440249410182809A
:100C4000B7860010938606CE378600101306865EA0
:100C50009305D00E37850010130585C9EF20B049E4
:100C6000397106DE22DC5ECEF3770430BE8BB747E7
:100C70000020938757CE139737003317E028F19B56
:100C8000AFA6E744F98EEDFE0F003003B747002012
:100C90000384C7576345040C26DA4AD84ED652D48B
:100CA00056D2AA8A2E89B284B3298420B73700206D
:100CB0009387C75CB3C9F9208386A9003747002012
:100CC000230ED756F3265030F19A130745033347C6
:100CD000D720032A0700B307FA401307F002637D09
:100CE000F70CB73700209387477E6313FA0A5AD070
:100CF000131A1400B3278420373B0020130BCB5C5E
:100D0000B3C76721373500201305C55F1D8D7D39B9
:100D10001365F52E2AC24AC4F177938727E4231678
:100D2000F100FD572307F100A3079100B3078A00E4
:100D3000B3C7672188C323A22701324798C74E8AC9
:100D40005E86D2855685693BD2544259B259225AA1
:100D5000925A025BF2506254F24B2161828026DA91
:100D60004AD84ED652D456D25AD062CC66CA6AC835
:100D7000B7860010938686D1378600101306065D6D
:100D80009305C01737850010130585C9EF20B036CD
:100D90005AD062CC66CA6AC8B7860010938606D459
:100DA000378600101306065D93053018378500104E
:100DB000130585C9EF20303437B7AAAA1307B7AA9D
:100DC00033B7E7020D833327E7200A076397E7026B
:100DD0005AD0D287014B03C7B70063F5E4040387F9
:100DE000A700634007043327E7203E8BB737002076
:100DF0009387C75CB347F720F9BF5AD062CC66CA65
:100E00006AC8B7860010938686D637860010130608
:100E1000065D9305401937850010130585C9EF203D
:100E2000902D3E8B63080B08931719000567F98F07
:100E3000CA9793F707809397B74893E7770B3EC21B
:100E400052091369790E1319F9284AC40309AB0032
:100E5000635209043165130525E42316A100230715
:100E60002101A3079100CE8513058B00C5392314FA
:100E7000AB0023058B00B7370020332484209387F1
:100E8000C75C3344F42092471CC0A2475CC0B24701
:100E90001CC47DB513058B007D3EAA85B327842035
:100EA000373700201307C75CB3C7E72013858700D7
:100EB000753165B762CC66CA6AC8B32784203737F4
:100EC0000020130BC75CB3C767213E8C3735002069
:100ED0001305C55F1D8DDD3C9367F52EBE8C3EC2AC
:100EE0004AC4D28513058C0095392316A100B30797
:100EF0006A41898737B7AAAA1307B7AAB387E70257
:100F00002307F100A307910023209C0123222C0139
:100F100032472324EC0003274A0093171700856605
:100F2000F58FBA9793F707809397B74893E7770BB6
:100F30002320FA0052071367770E1317F72823228E
:100F4000EA004E8A624CD24C424DDDBB93D745003D
:100F500093C7F700935625000D890A053D473317BF
:100F6000A7004207558F733037BEB397A700C2075B
:100F7000DD8E73A036BE8280411106C622C40144B4
:100F800031A0930500082285D1370504930730036B
:100F9000E3F987FE73600430B2402244410182804D
:100FA000411106C6B73700209387C75CB307F540E9
:100FB0001307F0026367F702732750BEA167F98F2A
:100FC000A9C3B7860010938646E137860010130642
:100FD000865A9305202837850010130585C9EF2010
:100FE0009011B78600109386C6DE37860010130670
:100FF000865A9305F02737850010130585C9EF2021
:10100000900F11831377F71F13074703737804308A
:10101000B7460020938656CE139636003316C02866
:10102000F19AAFA8C644B3F8C800E39C08FE0F00CD
:101030003003B73600209386C65CB306D540898658
:1010400037B6AAAA1306B6AAB386C6029396466016
:1010500073265030719A931827003347C7201843DE
:101060006313A704F3275030F19BC697373700204E
:101070001307477E98C3B747002003C7C757230508
:10108000E500238ED7560F003003B7470020938723
:10109000C7CDA38407001378880073200830B240BE
:1010A0004101828085070D47636CF70237360020C7
:1010B00033A7F7201306C65C3347C7200307A700F2
:1010C000E312D7FE328733A6F7203346E620FD55DC
:1010D0002305B6007177130727E42314E60061BFE8
:1010E000B7860010938606E2378600101306865AEC
:1010F0009305302937850010130585C9EF20A07F9F
:10110000411106C6AA8537870010130787E2954666
:101110000146374500201305D557EFF0CFFD634654
:101120000500930730033385A740B2404101828018
:10113000B74700209387C7CDAE971CC1828041116D
:1011400006C622C42A84EFF0FF81AA852285CD3706
:10115000FD572302F4000F003003B2402244410146
:101160008280411106C622C42A84EFF0AFFFAA850F
:1011700022857D3FFD572302F400A30204000F00E7
:101180003003B240224441018280411106C622C48C
:1011900037440020130444821DA0B78600109386B4
:1011A00046E43786001013068662E945378500104D
:1011B000130545E6EF202074228551372104B747F7
:1011C00000209387C782637BF4001C40F5D7054756
:1011D000E395E7FC228571372104D5B7B24022445C
:1011E00041018280B74700209387C7CDAE971CC1CD
:1011F0000F0030038280411106C622C42A840545AF
:10120000EFF0AFF8AA852285F13FB24022444101B8
:1012100082802A87F32750BE9396070163C1060296
:10122000918393F7F71F938747039387C7FC93D660
:10123000270081CA37850B408D8B1CC38280814774
:10124000EDB737050B40CDBF1855B306E640938781
:101250004500B3C7A7209C43998F63E7F6001C5154
:101260003317B028F98F89E7910533C5A52010C140
:10127000828042054D8D8280B746002083A70658A4
:1012800073770430139637003316C028F19BAFA54F
:10129000C744F18DEDFD0F00300383A706580F0002
:1012A0003003238007009377870073A00730332033
:1012B0001000014581458280397106DE22DC26DA84
:1012C0004AD84ED652D456D25AD05ECE6800913704
:1012D000B787F4BFAA9793B717003247B7460020E5
:1012E000B3C7E72093864654B3C7D72080438347CC
:1012F0000400631BF700AA84930745043317E02812
:101300008D66B69798C359A4B7860010938686EF6A
:1013100037860010130646659305200937850010AF
:10132000130545F2EF20205D5C48B3292921B3E97C
:10133000F92083AA890003AAC9002685EF00500E70
:10134000330755413337E500B3874541998F63C76C
:10135000072463400A0E03AB0901B71700109387F7
:10136000872B6307FB0683D52900031584001137FB
:1013700083A54901029B2A8BAE8BB3677B01D5CB3A
:1013800063D40B06B3866A41B3BADA00B3077A4175
:10139000B387574123A4D90023A6F9000395090078
:1013A000634E051E832844013327A5203367172188
:1013B000104758473386C64033B6C6003387E740E8
:1013C000118F634D071C2314A4001308840015A873
:1013D00083AB490183A70B015E85829739C903ABB3
:1013E0000B0083AB4B0051BF2685EF007003B306A3
:1013F000AB00B3B7A600AE9BDE9769BF3A88031572
:10140000070063430502031708003327E72033670B
:1014100017210C475047B385B640B3B5B6003386A5
:10142000C7400D8EE35C06FC2390A9002310280121
:10143000B5A2839709002314F4001C487377043085
:1014400093963700B316D028F19B2FA6D744758EFC
:101450006DFE0F003003831724002390F900231141
:1014600024011C480F003003238007009377870076
:1014700073A0073025A21C48737704309396370079
:10148000B316D028F19B2FA6D744758E6DFE0F00A2
:101490003003035E4400131E5E60FD572312F40008
:1014A0001C480F003003238007009377870073A048
:1014B00007302DA8BE850396070063430602839775
:1014C0000500B3A7F720B3E707219447D847B30631
:1014D000D540B336D5003387E840158FE35C07FC71
:1014E0002390C501031E03002310C300634E0E0AA0
:1014F000032844013323CE213363032103258300D2
:101500008328C30093058400031684007DB723035A
:101510000400930584000317840025A07D58FD581E
:1015200023A4070123A6170183168400638AE6001B
:101530002390C500831684002390D7002314E40071
:101540003287FD576305F7065448B327E720B3E712
:10155000D7200396070083D6270093965660E3CFE3
:1015600006FABE85F1BF4E86CA86B2452685E939A0
:1015700026857D25B387A940B3B9F9003309B94061
:10158000330939416349200563060904B247B3179B
:10159000F028DCDC03198400E35809D883574400A1
:1015A00093975760E3D907EC83476400ADF3831743
:1015B000840063C207025848B3A7F720B3E7E720C7
:1015C00083A9870003A9C700FD57E39EF9F8E3014B
:1015D00039FB51BFC5DF33201000F2506254D254A2
:1015E0004259B259225A925A025BF24B21618280CF
:1015F000411106C622C426C24AC02A84AE84B285DE
:10160000B7870B406309F50201492699B314902866
:1016100004D04A85EFF04FDD85454A85EFF08FD73E
:101620001304040489673E9404C0B24022449244E7
:101630000249410182801149C9BF011106CE22CC65
:1016400026CA4AC84EC62A842E89B289B6844CC599
:10165000EFF04FB1B74700209387C7CDAA971CC8BA
:1016600023003401B3C704082315F400370700D062
:1016700003470700A300E4007D572314E40023126E
:10168000E400BA972311F400814721A81388F7FFDB
:101690008328440133A7F72033671721231007015C
:1016A0008507E3E597FEB787F4BFCA9793B717009E
:1016B00037470020B3C7372113074754B3C7E72084
:1016C00080C3371600101306862BCE854A850D374A
:1016D000F2406244D2444249B24905618280B73740
:1016E0000020938787619C4B91C7373500201305F5
:1016F00085618280411106C6B7860010938646F642
:10170000378600101306C663930550063785001010
:10171000130545F2EF20201E411106C622C426C241
:101720004AC02A841C497375043013983700331853
:101730000029F19BAFA80745B3F80801E39C08FE18
:101740000F003003031924005C48B3242921B3E4BB
:10175000F42063460900839704002311F4001C4819
:101760000F003003238007009377850073A00730B4
:101770006341090894C8D8C88CC4D0C483D5240058
:101780008505B3C50508A167FD17FD8D91E1854568
:101790002391B4004A85F13C1C487377043093963A
:1017A0003700B316D028F19B2FA6D744758E6DFE57
:1017B0000F003003835744002390F40023122401C8
:1017C0001C480F003003238007009377870073A025
:1017D00007305C4403470400938747043317E0282D
:1017E0008966B69798C3B2402244924402494101A7
:1017F00082807D55CDBF011106CE22CC26CA4AC8B3
:101800004EC652C42A892E84B284B6893A8A99EB8C
:10181000B5293305A4403335A400B385B440898D80
:1018200063C005025287CE86A28526864A85ED359D
:10183000F2406244D2444249B249224A0561828060
:101840000145FDB7011106CE22CC26CA4AC84EC6B4
:1018500052C42A8AAE893289B6843A844935A2872D
:101860002687CA86D2854E867937F2406244D244B2
:101870004249B249224A05618280AA8713D70541AD
:101880008356A500635ED70654493327E7203367A4
:10189000D720144973760430139536003315A028E9
:1018A000F19A2FA8A6443378A800E31C08FE0F0085
:1018B00030038356270033C50608B3C5050863887F
:1018C000B6020145984B0F00300323000700137741
:1018D00086007320073015C5D84783C607009307D5
:1018E00047043317D0288966B69798C382801315AA
:1018F000F5282311A70005472383E7003A85D9B7C8
:1019000001458280411106C622C42A84C93BA285B2
:10191000AD37B240224441018280034515008280E8
:10192000011106CE22CC26CA4AC84EC6F32750BEA5
:101930001397070163580704AA842E849309A5FF0F
:1019400033B9A9009387F5FF3E9963E62501631635
:10195000B90063743501814901490D2E3385A940D1
:10196000B3B7A900B305B9409D8D6344B0028DC1E2
:101970002685A285352EF2406244D2444249B249BE
:101980000561828037850010130585F8EFE05FEA76
:1019900065D10147814637160010130686274E850C
:1019A000CA854D3563500504E1B7B746002083A7CB
:1019B000065873770430139637003316C028F19B0E
:1019C000AFA5C744F18DEDFD0F00300383A7065886
:1019D0000F003003238007009377870073A0073040
:1019E00033200000B7070B40DC53E3E027FDB706C8
:1019F0000B409456E3FE36F7E31CF9F67DB7411130
:101A000006C622C426C22A84AE84492422953334D1
:101A10008500A695A29563C805001937B2402244F7
:101A20009244410182807D55B7050080AA95F5B7A3
:101A3000411106C69307803EB335F5023305F50222
:101A40007D3FB24041018280011106CE22CC26CAE0
:101A50002A84AE84F32750BE13970701635E070AFA
:101A60004AC84EC6AD395C453E8783470500BE89EE
:101A70003A893A857522B307A440B336F400B3859A
:101A8000B4403E87958D93874900B3C727219C4377
:101A9000898F814663C8D5026384B6023320000073
:101AA000B7070B40DC5363E5970AB7060B40945623
:101AB00063F4860A638AF40805454249B249B5A829
:101AC000E37EF7FC01478146371600101306862790
:101AD0002285A685853B6355A008B7070B40DC53DC
:101AE00063E9970037070B401857637687006394C4
:101AF000F400332000003935B7070B40DC5363E1B5
:101B0000970A37070B4018576370870A6386F408F3
:101B100005454249B24915A0B7070B40DC5363EDB8
:101B2000B700B7060B40945663FEA6006384F50029
:101B3000054521A0014511A00145F2406244D2446F
:101B4000056182800545D5BF01454249B249F5B7D7
:101B500001454249B249D5B705454249B249F1BFAD
:101B6000B7070B40DC5363E19702B7060B4094566E
:101B700063F086026386F40005454249B24975BFA9
:101B800001454249B24955BF01454249B24975B77D
:101B900005454249B24955B701454249B24971BF6D
:101BA00001454249B24951BF05454249B24971B761
:101BB00037050B408280411106C6B7370020938756
:101BC00087619C4B99CBA9453745002013050558E3
:101BD000EFF00FD6B2404101828022C4D13F2A8467
:101BE0008D452128C1460D46A285373500201305B5
:101BF0008561EFF09FA42244F9B7411106C6B7876B
:101C0000F4BFAA9793B7170037860010130686FD16
:101C10001385F1803E95EFE07FC9B240410182809B
:101C20002A875C510857BE855C53E39DF5FE828090
:101C30005C5111A05C51E3EFC7FE11A05C516395AC
:101C4000C7001C55E3ECB7FE8280411106C622C4D2
:101C500026C24AC02A892E84B284D9372E87B3057A
:101C60008500B3B7A500330697003E966366E6008D
:101C70006316C70063F4A500FD552E864A854D3FC7
:101C8000B24022449244024941018280411106C679
:101C900037050B407137B24041018280411106C6C1
:101CA0002E86AA8537050B404D37B2404101828010
:101CB000411106C62E86AA8537050B40953FB240D6
:101CC00041018280B7870740630FF50069473317EA
:101CD000E028B737024098C3B70702409C47B37764
:101CE000F740FDFB82806D47DDB7411106C622C477
:101CF00000599377140091E72285B24022444101B4
:101D0000828026C2930705030D67BA971307103028
:101D100098C35C5118559A07BA97AA07BE8419450B
:101D20009924B7872B8F938757B73335F5022D81C9
:101D300033D5A40281459D3792447DBF411106C62B
:101D400022C426C24AC02A84AE843289793F9307CE
:101D5000C4025854B3C5E40033F625010567BA97A9
:101D600090C308D8B2402244924402494101828083
:101D7000411106C622C426C24AC0AA842E8419452F
:101D8000DD2293173500B3D78702850713D9770073
:101D9000630B090041677917636C270385834A84C5
:101DA00013F9F70311A00544C0D023A4240301466E
:101DB00081452685613719457D220A051A044A9412
:101DC00033558502B2402244924402494101828047
:101DD000014941647D14C9BF411106C69387B5FF0F
:101DE00096077D160E06D18F99C693E72700054703
:101DF000638BE60081461306E006B3E5F6003D3F3F
:101E0000B240410182809146FDB791CD2947B78705
:101E1000F8BF3E9513351500938731813325F520A2
:101E20002310E500828013070010D5B7411106C6C4
:101E300022C426C22A84AE841945352231C1B7870F
:101E400007406304F404E947B317F028372702403A
:101E50001CC32285853D81452285453FA685228577
:101E6000013F1307C4025C5493C7070793F7E707C2
:101E7000856636971CC3930710301CD88D473CC429
:101E8000B2402244924441018280ED4775BF000078
:101E90003328A520B70701403348F820832748009E
:101EA00063F4E7002322E8009308C5FF854763FC3D
:101EB00017078D67C2971313B02823A06700B74791
:101EC00000209387C70DB347F52003A307006301E4
:101ED0000302B74700209387C70DDC4BB3D76702D7
:101EE0008507B3A7F72001009387E7FFE3DE07FE2E
:101EF0001606832708003D8E1376060E8567C29767
:101F000090C30546637D16038967C2971316B028F0
:101F100090C32322E800B74700209387C70D3345BD
:101F2000F52014C18280E396F5F88D67C2970D43C2
:101F300023A0670083278800858BEDDF55BF03262C
:101F400008002D8E0D8A90C3832788003316B02891
:101F5000F18FFDDB55BF0100411106C641670D3F02
:101F6000B24041018280B74700209387C70D3345B7
:101F7000F52008418280411106C6B727B700938734
:101F800007B0B3D7B70237F84BD313080888329895
:101F9000B708AA329388088863E20809B358F602A2
:101FA000138308FF13080013636968081388F6FF9A
:101FB00019436363030B1308F7FF636F030911826F
:101FC000636BF60AC2063207D98E1C4163C5070C43
:101FD000B78705406303F50E39473317E028B72765
:101FE000024098C3B737024098C3B70702409C47E6
:101FF000B377F740FDFB0CC12324150113074500FF
:102000008D673E97930710021CC31C41E3DF07FE58
:1020100054C5A1471CC3B24041018280B78600105D
:102020009386C6FF378600101306C666C5453785FA
:1020300000101305C504EF10100CB786001093862E
:102040004609378600101306C666E5453785001039
:102050001305C504EF10300AB78600109386060BEF
:10206000378600101306C666F14537850010130544
:10207000C504EF105008B78600109386C60F378648
:1020800000101306C666930530023785001013054D
:10209000C504EF1050061C4193F7F703E39AB7F21B
:1020A0001C4505677D17F98FE39417F35C45377777
:1020B0000700F98FE39ED7F0B9BF3D4739BF03A7AB
:1020C0007181B7870D40D8C38280B7B70D403707FD
:1020D000004098C337A70140B7070002CD171CC7BF
:1020E00089CDB7A70D403707000798C309EDB7A7FB
:1020F0000D403707008098C38280B7B70D4037077F
:10210000000798C3E5B7411106C63345A5203345FE
:10211000A5203345A5200E05A3ABA180B70700017C
:102120006365F500FD17A3ABF180513FB7A70D40E4
:102130003707004098C3B24041018280411106C672
:10214000AA87328537B70D40B706004014C38DC744
:10215000B7860D4037C707B01307370DD8CE3747BE
:10216000F84F1307D7F23D8F98D2CCD29CD6814539
:10217000A93FB24041018280B7870D4023AE0700DE
:10218000FDB737871040B327A520B3C7E720CCC3DE
:102190003E8585471CC18280011106CE22CC26CA0D
:1021A0004AC84EC6AA892E89B2843684A16783D7CD
:1021B000A7DF85451165130525258297AA87A28685
:1021C0002686CA854E858297F2406244D2444249AF
:1021D000B24905618280411106C6A16783D7A7DF96
:1021E00085458297B24041018280411106C6AA8688
:1021F0006347050093E7050201CA93E505032E86B0
:10220000A94513052010493FBE85D5BFB7170E401D
:1022100083A78782E5DF0F0030038280014721A872
:10222000B787031093873720BA978A070F003003C8
:1022300023A0070005079D47E3F4E7FE82804111D4
:1022400006C6E93FB2404101828037870440856776
:10225000938707AA1CC39307A0115CC7B7A70440C4
:1022600037B7FA0098C3B7870440DC43E3DD07FEC5
:102270008280411106C622C42A8421A01C40829774
:102280001104B7870010938747A9E369F4FEB240B1
:102290002244410182808280411106C637850010A8
:1022A0001305C5A5F937B2404101828037270240A6
:1022B000B747EFEF9387F7B71CC337370240B7072D
:1022C000F403D9171CC3B70702409C473707F40330
:1022D0005917B377F740E5FB8280B7071150F847ED
:1022E000A1676303F7008280B72711503707040006
:1022F000F8C7828037370240B7070020FD171CC39C
:10230000B70702409C47370700207D17B377F74097
:10231000E5FB8280411106C6156513053525653D2F
:10232000AA8711458297B24041018280411106C6B9
:102330001565130535254535AA8705458297B240B1
:1023400041018280411106C6EFE04FE6B2404101F3
:102350008280411106C622C426C211452931B7E741
:102360001B43938737E8B334F502C980014429A0A1
:10237000A6852285393505049547E3DB87FEB24003
:102380002244924441018280411106C6B7070140B0
:1023900023A207085D3DB73701400547D8DFB707DF
:1023A0000140F8438547E31CF7FEB73701400D476E
:1023B00098DBB7070140985F8547E31CF7FE0947A4
:1023C000954637366859130606F0BE853705054031
:1023D0005D361547BA8637968647130606C085458B
:1023E00037850540493EB726B700938606B00146BB
:1023F000894511459536B7D6F008938606180146EB
:1024000085451545EFF05FB5B776DC02938606C0CB
:10241000014681452145EFF03FB4B776DC02938653
:1024200006C0014681452545EFF01FB3B7D6F00839
:1024300093860618014681451945EFF0FFB1B7D6DE
:10244000F00893860618014681451D45EFF0DFB080
:102450000937B240410182806375D600B29523806E
:10246000A5008280828009C9411106C69C41CC41E9
:102470008297B240410182808280AA86014521A8CC
:102480003345A520930717009CC2834707003325D7
:10249000F520130505FD984283470700938707FD44
:1024A00093F7F70F2546E37DF6FC8280797106D617
:1024B00022D426D24AD04ECE52CC56CA5AC85EC674
:1024C00062C4AA842E89B28BB689BA8A3E84428BB2
:1024D00013FC280063110C0493F81800639D080294
:1024E00066C23E8A11A8930C1600CE86CA851305D3
:1024F00000028294050A6686E3676AFF924C21A86F
:102500007D14B3878A00130A1600CE86CA8503C5D8
:102510000700829452866DF463170C023285B25024
:10252000225492540259F249624AD24A424BB24B67
:10253000224C4561828013041600CE86CA8513059D
:10254000000282942286B3077641E3E667FFF9B77B
:10255000411106C6C28FC68E424F5248E24813F35D
:102560002800631F03046305080213F318006301C6
:10257000030263960F0013F3C800630B03007D187A
:1025800001A83303F700130E00032300C3018507DE
:1025900013B3070263F4E701E31503FE13F3180016
:1025A0006300030213B3070263FC0701630A03001D
:1025B0003303F700130E00032300C3018507F9BF9F
:1025C00013F30801630D030813F30840631C0304AD
:1025D000B1CB3383E74113331300338E0741133EEE
:1025E0001E003363C301630F0302138FF7FF3333FE
:1025F000E001138E0EFF133E1E003373C30163020E
:102600000302F91713F30802631B03067D4E636888
:10261000FE063303F700130E80072300C30185076E
:102620002DA0FA874143E38F6EFCF91E93BE1E0076
:1026300013B30702B3FE6E0063890E003303F70085
:10264000130E20062300C30185077D436365F30253
:102650003303F700130E00032300C30185077D43F6
:10266000636BF300638D0F023303F700130ED00288
:102670002300C30185071D3DB24041018280414EC8
:10268000E395CEFBE30303FA7D43E360F3FA330300
:10269000F700130E80052300C30185077DB713F3F0
:1026A0004800630A03003303F700130EB00223004F
:1026B000C3018507C9B713F38800E30E03FA330398
:1026C000F700130E00022300C30185076DB73971AF
:1026D00006DEBE8F164F19E3137FFFFE937E0F4079
:1026E00063830E0425C3814E3DA813730F02630854
:1026F00003041303100472931373F30F591313732A
:10270000F30F93871E00138E0E03B30E2E0023804B
:102710006EFE335E070313B30702636607036304A9
:102720000302BE8E7287337E0703137EFE0F25439E
:10273000E36DC3FB130E0E031373FE0FD9B7130320
:10274000100655BFBA877AC406473AC246C0C28847
:102750007E881808F53BF25021618280197186D677
:10276000A2D4A6D2CAD0CECED2CCD6CADAC8DEC6C1
:10277000E2C4E6C2EAC06EDEAA8B2E8CB28C368D25
:102780003A89BE84C28DC6DEC68A8A493A4BD98F41
:1027900099E3137BFBFE13740B401DCCB3679900C8
:1027A000C9C7014415A893770B0291CB9307100476
:1027B000AA9793F7F70FD91793F7F70F3DA8930749
:1027C0001006FDB7814793F7F70F13370A02B9CF09
:1027D00031CF52842A89AE845686CE864A85A68514
:1027E00097E0FF0FE780E0671375F50FA547E3EC6F
:1027F000A7FA130505039377F50F130A14001307BF
:102800000403330427002300F4FE5686CE864A854F
:10281000A68597E0FF0FE780E02D8547E3E434FBD2
:10282000E39399FAE37159FB71BF014A5AC4AA476D
:102830003EC29A473EC0D6886E88D2871808EA867C
:102840006686E2855E852933B6502654965406592D
:10285000F649664AD64A464BB64B264C964C064D30
:10286000F25D09618280597186D6A2D4A6D2CAD0FF
:10287000CECE2A842ECA32CE36CCBA893AD03E8900
:102880003ED242D4C6844E86CA864E85CA859710EB
:102890000010E780009A631F052CB797001003A66D
:1028A00007B383A647B34E85CA8597000010E7801B
:1028B00000906341A02CB797001003A687B383A6AE
:1028C000C7B34E85CA8597000010E780C09B63435D
:1028D000052AD2CCD6CADAC8DEC6E2C4E6C26EDEAB
:1028E00001468146025992594A85CE8597000010CB
:1028F000E78060996344052A8257BE8B9257BE8D4C
:10290000C65793F707403ED699E399473ED4DE8AEF
:102910006E8BB3E7BB0163880728EAC013D54D016E
:102920001375F57FB7071000FD17B3F7FD003707E4
:10293000F03F33E9E700130515C097100010E7805A
:10294000809EB797001003A607B483A647B49700EC
:102950000010E78020A1B797001003A687B483A6D4
:10296000C7B497F0FF0FE780608B2A8AAE89B797CC
:10297000001003A607B583A647B55E85CA859700F4
:102980000010E78060F8B797001003A687B583A60C
:10299000C7B597000010E780E09C2A86AE86528576
:1029A000CE8597F0FF0FE780608797100010E780D3
:1029B000008C2A8C97100010E780E0962A8AAE8956
:1029C000B797001003A607B683A647B69700001076
:1029D000E7804099B797001003A687B683A6C7B6CD
:1029E00097F0FF0FE780808397100010E780208822
:1029F0002A89B797001003A607B783A647B7528561
:102A0000CE8597000010E780E0952A8AAE894A8536
:102A100097100010E7802091B797001003A687B7A2
:102A200083A6C7B797000010E780C0932A86AE86BA
:102A30005285CE8597000010E78000ED2A8AAE8986
:102A40002A86AE8697000010E780C0912A8BAE8A56
:102A50001309F93F52095286CE865285CE8597E0FA
:102A6000FF0FE780A07B2A8DAE8C5286CE86B7976B
:102A7000001003A507B883A547B897000010E780AA
:102A8000A0E82A8AAE89B797001003A687B883A664
:102A9000C7B85A85D68597F0FF0FE7802008B7970B
:102AA000001003A607B983A647B997E0FF0FE78098
:102AB000E0762A86AE865A85D68597F0FF0FE780A6
:102AC000E005B797001003A687B983A6C7B997E0BA
:102AD000FF0FE780A0742A86AE865A85D68597F0C8
:102AE000FF0FE780A0032A86AE865285CE8597E049
:102AF000FF0FE780A0722A86AE866A85E68597F08A
:102B0000FF0FE780A001B797001003A607BA83A6BE
:102B100047BA97E0FF0FE780607001473A86CA86A0
:102B200097000010E78000842A89AE89AA8A2E8B3C
:102B30005E86EE8697F0FF0FE78060676353A00222
:102B40009307FCFF3E8CB797001003A607B983A636
:102B500047B94A85CE8597F0FF0FE78020FCAA8A07
:102B60002E8B93073C061307600C636CF708114922
:102B7000064D25A8C6573EC0A68822580256925632
:102B80003287B687E2467246D24522855D22B6502C
:102B9000265496540659F64965618280CA8B9397EC
:102BA000F969BE8DB1BB014C1149465793174701D6
:102BB00063D30706B3E76A018DCFB797001003A66A
:102BC00087BA83A6C7BA5E85EE8597F0FF0FE780C8
:102BD000005E63410510B797001003A607BB83A6EC
:102BE00047BB5E85EE8597F0FF0FE780C0696353B2
:102BF000050EA257635AFC00B3878741FD173ED4E8
:102C000029A01549064D55B702D4C65793E707408A
:102C1000BED80149014C6377990CB3872441BE8922
:102C2000C657898BBE8C81C7630309008149630C39
:102C30000C005686DA865E85EE8597F0FF0FE780FA
:102C4000E0EDAA8BAE8D01468146025792573A8538
:102C5000BE8597F0FF0FE780006363470508C657FE
:102C60009397B7483EC0CE8822585E87EE87E246EB
:102C70007246D245228575286305090AC65793F71F
:102C80000702BDC79307500413071500BA8A624AAA
:102C9000D2862A86D249CE853E850294330780416A
:102CA00095473EC27D194AC0814829489357FC0187
:102CB0003367EC0AD2865686CE852285EFF03FA197
:102CC00063940C04664AD64A464BB64B264C964C47
:102CD000F25D75BDA257A1D3B25795DFA257FD177C
:102CE0003ED415BF81492DBF9397FD69BE8D85BF29
:102CF0009307500651BF13091500E2462A86D245B4
:102D00001305000202944A85F247B307F540E3E455
:102D100097FE664AD64A464BB64B264C964CF25D19
:102D2000BDB5664AD64A464BB64B264C964CF25D2C
:102D3000B9BD197186DEA6DAE2CCE6CAEAC8EEC6EB
:102D4000AA8D2EC832CA36CC3A8CBE8CC284468D2F
:102D50003A86BE863A85BE8597000010E780604DB2
:102D600055E1B797001003A687B383A6C7B3628562
:102D7000E68597F0FF0FE78000516343050AB79798
:102D8000001003A607B383A647B36285E68597F0D4
:102D9000FF0FE780C0416343A00AA2DCCAD8B797FF
:102DA000001003A687BB83A6C7BB6285E68597F0A4
:102DB000FF0FE780C03F634AA00AB797001003A641
:102DC00007BC83A647BC6285E68597F0FF0FE780C6
:102DD000804B634C0508CED6D2D4D6D2DAD0DECE24
:102DE000014681466285E68597F0FF0FE780A0499E
:102DF000634C050802CE8A4793F70740638B071C94
:102E0000014455A88A486A888D4737870010130700
:102E10004716E2465246C2456E85EFF02FE915A6E9
:102E20008A486A8891473787001013078716E24659
:102E30005246C2456E85EFF06FE721A68A47918B17
:102E400099CF378700101307871591478A486A88FA
:102E5000E2465246C2456E85EFF04FE5DDA4378766
:102E60000010130707168D47D5B78A473EC0EA887A
:102E700026886287E687E2465246C2456E85EFF0B5
:102E80009F9E6654465975AC6286E686014581452B
:102E900097000010E78040A72A8CAE8C85473ECE75
:102EA00099BF930704031808BA97130700032380F8
:102EB000E7FEFD1405049337040213B7A40013477B
:102EC000170091C379FF6285E68597000010E780BF
:102ED000003A2A8997000010E780E0442A86AE86EF
:102EE0006285E68597000010E78000A2B787001092
:102EF0009387076DB3E7F42003A847009C433E8AFD
:102F0000C28A3E86C28697F0FF0FE780A045AA8B53
:102F10002E8B97000010E780A03BAA899700001035
:102F2000E780E0482A86AE865E85DA859700001045
:102F3000E780809D2A8BAE8BB797001003A687B6DB
:102F400083A6C7B697F0FF0FE78060266355A008F9
:102F500085094E8597000010E78060452A86AE8679
:102F60005285D68597F0FF0FE780E0316344A000DB
:102F700005098149D1E44A8597000010E780A03A0D
:102F80002A86AE866285E68597000010E780C097A6
:102F9000AA89AE84B797001003A687B683A6C7B6E2
:102FA00097F0FF0FE780202E634A050CB7970010BB
:102FB00003A687B683A6C7B64E85A68597F0FF0FF2
:102FC000E780E01E634CA00A93771900C5CB050982
:102FD00075A0994435B5B797001003A687B683A6A8
:102FE000C7B65A85DE8597F0FF0FE780C029E34317
:102FF00005F86385090093F71900ADDF85099DBFCA
:10300000FD4763EB8704FD14B7D7CCCC9387D7CCAF
:10301000B3B7F9028D83BE86B3C7F7208607B3879F
:10302000F9401307140093870703130604030C08E1
:103030003304B6002300F4FEA54763F33709B689CD
:103040003A847DBF130704031408369793060003E0
:103050002300D7FEBE840504FD4763E58700938700
:10306000F4FFEDF0FD4763EB8700930704031808B6
:10307000BA971307E0022380E7FE0504FD4763E4E7
:103080008704B767666693877766B317F9028987FF
:103090001357F941998FBE86B3C7F7208607B30748
:1030A000F9401307140093870703130604030C0861
:1030B0003304B6002300F4FE368989C63A847DBF06
:1030C0003A8459BF3A848A47898B8DEF8A47858B2A
:1030D00095CB63040D02F24781E78A47B18B91CF0C
:1030E0009307FDFF3E8D11A8930704031808BA97B4
:1030F000130700032380E7FE05049337040263737C
:10310000A401FDF3FD4763ED8700F247B9C39307C0
:1031100004031808BA971307D0022380E7FE0504BA
:103120008A486A88A2871810E2465246C2456E85D0
:10313000EFF0CFB766544659B659265A965A065BF1
:10314000F64BF650D654664CD64C464DB64D0961FA
:1031500082808A47918B99CB930704031808BA970A
:103160001307B0022380E7FE05045DBF8A47A18BE9
:10317000C5DB930704031808BA97130700022380DE
:10318000E7FE050471BF1D7186CEA2CCA6CACAC8CF
:10319000CEC6D2C4D6C2DAC02A8AAE89328936CE29
:1031A0003ACC6384056A8144F24703C50700630390
:1031B000056A13075002630DE50013841400CA86E4
:1031C0002686CE85029AF24785073ECEA284E9BFC5
:1031D00085073ECE014405A8930600026302D70688
:1031E000930630026318D7001364040185073ECEAE
:1031F000854A01A8814A31A01364240085073ECE88
:10320000854A63870A04F24703C707009306B002A2
:103210006302D702E3F2E6FC9306D002E30ED7FC8A
:10322000930600036314D7021364140085073ECE8F
:10323000854AC1BF1364440085073ECE854AD1B795
:103240001364840085073ECE854A65BF814A55BF19
:10325000F24703C70700930707FD93F7F70FA5464B
:1032600063F4F6049307A0026305F704568BF24754
:1032700083C607001307E002638EE604F24703C724
:1032800007009306C0066307D70A63F8E6089306AB
:1032900040076305D70E9306A0076315D70E136486
:1032A000041085073ECEF9A86808EFF00F9D2A8B21
:1032B0007DBFE247138747003ACC03AB0700634664
:1032C0000B00F24785073ECE5DB713642400330B35
:1032D0006041C5BF13640440138717003ACE03C78B
:1032E0001700930707FD93F7F70FA54663F2F60261
:1032F0009307A002E314F7F8E247138747003ACC9C
:1033000083AA0700B3EA0A0AF24785073ECEBDB793
:103310006808EFF08F96AA8A95B793068006630D2A
:10332000D7029306A006631FD70413640420850701
:103330003ECE89A813660410138717003ACE83C6C1
:1033400017001307C0066384E600328425A81364BF
:10335000043089073ECE3DA013660408138717008A
:103360003ACE83C61700130780066384E6003284D2
:1033700011A81364040C89073ECE29A0136404101D
:1033800085073ECEF24703C5070093075006630545
:10339000F50A63E6A712930760046305F51663FF59
:1033A000A70293073006631BF5065EDE09886300FB
:1033B000043A854AE247138747003ACC938B1400BE
:1033C000CA862686CE8503C50700029A631D043887
:1033D000F24785073ECEDE84F25BF9B393075002D5
:1033E000631FF50013841400CA862686CE85130554
:1033F0005002029AF24785073ECEA28475B3930726
:103400005004630BF50213841400CA862686CE8509
:10341000029AF24785073ECEA28479B363E8A706F5
:10342000930780056308F506930720066304F506F5
:1034300093077004E319F5FC930795FB93B7170006
:10344000130795F9133717005D8F19C31314B428A8
:103450001307B5FB13371700D98F99C31364040200
:10346000E2479D07E19B138787003ACC9843DC43F2
:1034700022C0DA885688CA862686CE855285EFF025
:103480008FBEAA84F24785073ECE39BB930740061C
:10349000E31BF5F6930785F893B71700130785FA32
:1034A00013371700D98FCDEF9307F006630BF51292
:1034B000930720066309F5123D9829485DA09307FC
:1034C0000007630CF53463F5A70293073007631E0A
:1034D000F5065EDE62DC66DA6ED6E24713874700E9
:1034E0003ACC03AC0700639B0A2A7D57E28759A4B4
:1034F00093077006E302F5F463E0A7049307600600
:10350000E313F5F0930760046301F522E2479D079A
:10351000E19B138787003ACC9843DC4322C0DA88CA
:103520005688CA862686CE855285EFF09F80AA846B
:10353000F24785073ECE8DB993079006E30CF5F46C
:103540009307F006E308F5F47DBDE36EF5EA930713
:103550005007E301F5F493078007E30DF5F265B535
:103560004148930780056302F508930775F9B3375F
:10357000F0001307C5F93337E000F98F91C34D9878
:103580009377044091C37998930775F993B717001F
:103590001307C5F913371700D98FF5C793770420A0
:1035A000A1EB93770410D1EB93770404CDCFE247DE
:1035B000138747003ACC03C70700B306E04022C296
:1035C0005AC0D6889357F7013367D70ACA8626862A
:1035D000CE855285EFF0AF8FAA84F24785073ECEA5
:1035E000E1B62148BDBF0948ADBF13640402B5BFB1
:1035F000E2479D07E19B138787003ACC9843CC4371
:1036000093D6F541B3C7E60033C6B6003387D7403B
:10361000B3B7E700B306D64022C65AC456C202C0AA
:10362000C28813D8F501B387F640CA862686CE85B0
:103630005285EFF0AF92AA844DB7E2471387470057
:103640003ACC9843B306E04022C25AC0D68893577A
:10365000F7013367D70ACA862686CE855285EFF0F2
:103660000F87AA849DBF9377040881CBE247138715
:1036700047003ACC0397070089B7E2471387470012
:103680003ACC98431DBF937704208DEB93770410B9
:10369000A1EF93770404B5CBE247138747003ACCF8
:1036A00003C7070022C25AC0D6888147CA86268629
:1036B000CE855285EFF0AF81AA8405B7E2479D071A
:1036C000E19B138787003ACC9843DC4322C65AC457
:1036D00056C202C0C2880148CA862686CE85528557
:1036E000EFF0CF87AA84D5BDE247138747003ACCD5
:1036F000984322C25AC0D6888147CA862686CE857C
:103700005285EFE0DFFCAA84C9BD9377040881CB22
:10371000E247138747003ACC03D7070061B7E24777
:10372000138747003ACC9843B5BF13640402F9BB32
:10373000938B1400CA862686CE8513050002029A52
:10374000D687DE84938A1700E3E467FFA5B1854737
:10375000D5BF93841B00CA865E86CE851305000202
:10376000029AA28AA68B13841A00E3E46AFF8DB141
:103770008507368783C6070081C69306F7FF6DFB72
:10378000B38B8741937C044063840C00B3DB5B0BF9
:1037900093772400BE8DA1E36AD831A85687B9B3C8
:1037A000938714003E8DCA862686CE8513050002B7
:1037B000029AA28BEA8413841B00E3E36BFFA28BC3
:1037C000425D11A8BE8A050C13841400CA862686A1
:1037D000CE85029AA28403450C0019C5E3850CFE30
:1037E0009387FAFFE3900AFE63940D02F247850780
:1037F0003ECEF25B625CD25CB25D7DB2938A140015
:10380000CA862686CE8513050002029AA28BD6842C
:1038100013841B00E3E46BFFD1BF13641402E2477F
:10382000138747003ACC984322C2A1473EC0D688AE
:1038300041488147CA862686CE855285EFE03FE91A
:10384000AA84F24785073ECE85B2372A0010130AB4
:103850004A4691BA63E324031306F9FFCA86CE856C
:103860000145029A2685F6406644D6444649B64943
:10387000264A964A064B256182802686C5B739714D
:1038800006CE32D436D63AD83EDA42DC46DE38109E
:103890003AC6AE867D56AA853725001013058545A4
:1038A000EFF07F8EF24021618280011106CE3687D3
:1038B0002AC42EC6B2867D562C003725001013056B
:1038C0006546EFF05F8CF240056182800D45731014
:1038D00025BE7D15E35D05FE0565130505807310A6
:1038E0004530736004307310003482800290FDBF55
:1038F000411106C6E53F411106C62E88B68519CE90
:10390000B2873787001013070717C2862A863785C4
:10391000001013050518352E0545C93F37870010DF
:10392000130747B9BA87D5B7411106C622C4F32792
:1039300050BE13970701634307000290EFE0DF9545
:1039400037840010130444A921A01C40829711045D
:10395000B7870010938707AAE369F4FEB2402244B8
:1039600041018280411106C62E871C41B2853A85ED
:103970008297B24041018280011106CE26CA4AC810
:103980004EC6AA89AE8432898347550189C722CCA5
:103990000144014525A01C41B2852685829741A09E
:1039A00083C7490105A883A70900894537950010F9
:1039B000130585BC8297130514000504635D240379
:1039C000E35080FE9307F4FFA69783C70700CD1747
:1039D00093B7170033878400834607002947E39E87
:1039E000E6FCE1FFE35185FC83A70900B305A44091
:1039F000269582974DBF6358250183A70900B3051B
:103A0000A94026958297635220037D19CA9483C7E3
:103A10000400CD1793B71700238AF9006244F240DF
:103A2000D2444249B249056182806244CDBF1C4103
:103A30009DCF411106C622C426C2AA8403A4F181E7
:103A400039A090409385440022853D37004809C83D
:103A50001C40EDDF83A7B181EDD7E39987FED5B791
:103A600023A00400B240224492444101828082801B
:103A7000411106C622C426C2AA842E849841930707
:103A80000008630EF7001C401387170018C03E940F
:103A900023029400B24022449244410182802E8548
:103AA0007937D5B7411106C6EFE04F9EB7470F00F3
:103AB00093870724AA9733B6A7002E96634E060075
:103AC000BE85374500201305458297C0FF0FE7806C
:103AD0008063B24041018280FD57370600803E96E8
:103AE000C5B7411106C6374500201305458297C06A
:103AF000FF0FE780A069B24041018280797106D64C
:103B000022D426D24AD04ECE52CC56CAAA89AE84EE
:103B1000328A3684413FAA8AFD57638AF40009CC71
:103B2000374900101309899703A4F18121A84E8514
:103B3000EF307061AA84E5B7374900101309499640
:103B4000E5B700481DC41C40EDDF83A7B18199C3D0
:103B5000E39987FE2686CE8522850299E3030AFE35
:103B6000A947A307F10005469305F10022850299B4
:103B7000C9BF639C0A002685B25022549254025950
:103B8000F249624AD24A45618280A13FEDB783A7DC
:103B9000F1811387F18121A0138707019C4B91CB01
:103BA0001C43E39BA7FE81E91C491CC32328050095
:103BB000828091C108C38280411106C622C403A439
:103BC000F18111A0004809C45C40EDDF8297DDBFA0
:103BD000B240224441018280411106C60929B24007
:103BE00041018280411106C622C426C2AA84EF3058
:103BF00090552A8485463686AA85268501376D3FED
:103C00002285B2402244924441018280717106D7DC
:103C100022D526D34AD14ECFAA892E896135AA84CE
:103C200002C66000CA864E86A2853745001013057D
:103C300005A7A5392A892285DD3BBD3F89E84A854C
:103C4000BA502A549A540A59FA494D618280513D1A
:103C5000FDB7397106CE2ED232D436D63AD83EDAF6
:103C600042DC46DE4C102EC65537F2402161828080
:103C70008280A3810182828003C755009307F00FE1
:103C80006313F70283C765008DE303C7750085479B
:103C9000631FF700A14763FEC70003C72500A38188
:103CA000E18225458280014582800145828001456F
:103CB0008280014582800545828085476396F506AE
:103CC0000347460083475600A207D98F03C73182B6
:103CD0006384E70001458280411106C683471600D0
:103CE0006389B70009476389E7020145B240410192
:103CF00082808345260083473600A207DD8D93F737
:103D0000071089CB13D5950013D6954893F5F50781
:103D1000EFE0AFCD7D55CDBF13064006814501458F
:103D2000EFE0CFC10545D9B7054582803785001042
:103D30001305857E828005476390E504B28783463C
:103D40001600639DB60283464600034756002207CD
:103D5000558F9D466304D70001458280411106C6F8
:103D60009306600A3786001013060674BE85EF10AE
:103D7000B047B24041018280054582800145828082
:103D800085472300F50037850010130505728280F2
:103D900003C7050083C71500A207D98F03C72500F5
:103DA00042075D8F83C73500E207D98F1307004BA9
:103DB0006383E7008280411106C6014681457D5537
:103DC000EFE0AFC2A3A1A184A3AFB1828280411171
:103DD00006C6EFD0BFEBB7470F0093870724AA971B
:103DE00033B6A7002E96634B0602BE8513857184F9
:103DF00097C0FF0FE780203119CD81457D55EF1029
:103E000030080145EF20E0046DF91385718497C0F7
:103E1000FF0FE780A037B24041018280FD5737068F
:103E200000803E96D9B7411106C603C53183EFC065
:103E3000BFD7B24041018280411106C622C426C2CA
:103E400083A77183B9CB7377043093963700B31689
:103E5000D028F19B2FA6D744758E6DFE0F0030033E
:103E600093877183D8C3238A01829C430F00300358
:103E700023800700218B732007300144814403C550
:103E80003183EFC0FFCE11ED014481442285A68528
:103E9000B24022449244410182801304803E814416
:103EA000F9BF03C53183EFC03FD0CDB7011106CEB6
:103EB00022CC26CA4AC84EC652C456C22A892E846B
:103EC000B284B6893A8ABE8AEFD05FDC3308A40098
:103ED00033348800B387B400C2853306F4006341ED
:103EE0000602D6875287CE864A85EFD0DF90F24011
:103EF0006244D2444249B249224A924A05618280D0
:103F0000FD55370600802E96E9BF011106CE22CC62
:103F100026CA4AC84EC652C42A8AAE893289B68495
:103F20003A84EFD0CFFBA2872687CA86D2854E86F9
:103F3000B53FF2406244D2444249B249224A056147
:103F40008280411106C681451385718497C0FF0F99
:103F5000E780400B39E583A77183A9C373770430E9
:103F600093963700B316D028F19B2FA6D744758EB1
:103F70006DFE0F00300393877183D8C383C64183DE
:103F800093F6F60F8545238AB1829C430F003003D8
:103F900023800700218B7320073085CEB24041017A
:103FA000828022C481457D55EF10806D0145EF1060
:103FB00030632A841385718497C0FF0FE780001D4A
:103FC0001DC083A7318495C303A5F1838297224442
:103FD000F1B72E8737460010130686E31305803E9F
:103FE0008145253765BF224455BF224445BF411155
:103FF00006C622C4B70700D08043EFD04FEEEFD003
:10400000DF9163108508B797001083C787BE81458D
:104010000145EF20F02E83A77184C1C70545EFD07D
:104020002F8EA389A182B7450010938525F41375BF
:10403000F50FEFC07FBB854503C53183EFC09FB54A
:104040003945EFC0DFB82A8435C10545EFC0FF937D
:10405000AA8513857183EFD0EF980146B74500100C
:10406000938565E23945EFC0BFBF854537350020F0
:104070001305857EEFF0BFB12285B2402244410195
:104080008280B78600109386061B379600101306B1
:1040900086819305600C378500101305851BEFF0B2
:1040A0009F8513857184EFD08F898DBF938771832E
:1040B00023A0070023A207000547814637460010CA
:1040C000130686E31305803E814581351345F5FFD0
:1040D0001354F501E35205FA49BF411106C60145E3
:1040E000EF10D04BB24041018280411106C622C47C
:1040F00026C22A84AE84D53741C10145EF10504E07
:104100003DCDEFD0BFB8B7470F0093870724AA97DC
:1041100033B6A7002E9663420604BE8513857184CC
:1041200097C0FF0FE78020FE31CD453F09C501450F
:10413000EF10104B05E981457D55EF106054F557A0
:104140003E841385718497C0FF0FE7802004228589
:10415000B2402244924441018280FD5737060080DC
:104160003E9665BF2686A2850145EF10D0492A8478
:1041700069F9F5573E84F1B7F5573E84C9BFF55745
:104180003E84F1B7F5573E84D9B7011106CE26CA51
:104190004EC6AA89AE84EFD07FAFB7470F00938792
:1041A0000724AA9733B6A7002E96634F0600BE8554
:1041B0001385718497C0FF0FE780E0F419E9F2409E
:1041C000D244B24905618280FD57370600803E9691
:1041D000F9BF21375DE181460147A3A5D182A3A79D
:1041E000E1821385718497C0FF0FE78020FAC1BF79
:1041F00081457D55EF10C0480145EF109045F13DD8
:1042000041C50145EF10905B31C1635C9406338971
:1042100084400145EF10905A634325014A8569D9CE
:104220002A86B38589000145EF1010532A898145FC
:104230007D55EF10E0440145EF10B0414A94EFD0B6
:10424000FFA4A3A5A182A3A7B182C1B7EFD01FA4E9
:1042500003A7B18283A6F182B7A70700938707124D
:10426000BA9733B7E70036976363B702E39FE5F881
:10427000E3FDA7F862444249ADB722CC4AC80144E5
:1042800069B762444249B1BF6244424999BF62443E
:10429000424981BF379500101305458982803795C3
:1042A0000010130505848280411106C622C42A84A9
:1042B000B747002083C747569DCB29E0B74700206A
:1042C00093874710130790402391E70085478507A0
:1042D0008607B3C70708374500201305451093E745
:1042E00007302310F500B240224441018280C545C9
:1042F00037450020130545567D20C1B7954763EE2D
:104300008702B7970010938787823344F4201040C8
:1043100081474947E36DF7FA3307F6008346070004
:10432000DDD68507374700201307471033A7E7205E
:104330002310D70093F7F70FE9BF01456DB7397127
:1043400006DE156513057534EFD0FFE8AA8705462C
:10435000A5456800829791476314F500014735A889
:10436000B786001093868624379600101306868C35
:104370009305F0023785001013050525EFF0AFD740
:10438000BD47998F938707038A9783C6C7FD938795
:10439000F184BA972380D70005079D47E3D2E7FE53
:1043A000F2502161828099C1014715A8411106C6CA
:1043B000B78600109386062A379600101306868A61
:1043C0009305B0033785001013050525EFF0AFD234
:1043D00093877703B306E5002380F60005079387EC
:1043E000F5FF6379F702BD4763E6E70293561700CE
:1043F0009387F184B69783C707000546B376E640F6
:104400008A06B3D7D740BD8BA546E3C3F6FC938796
:104410000703C9B73A952300050082809376F50714
:10442000935775003747002033A8F6201608130766
:10443000C71242972301A70013C51700A300A700C6
:10444000A3010700231CB700A30DC700B9EF139603
:104450003600110637071050130707083A963747FA
:104460000020B3A5F62096051307C7122E9710C794
:104470003747002033A6F62016061307C7123297D7
:104480001847232007009DEE37470020B3A7F620EA
:10449000939657009307C712B69723A207003707D2
:1044A000105013070710D8C7828037061050130624
:1044B000060833E6C620374700201307C712429785
:1044C00010C77DB79DE31387F6FF0E071107370668
:1044D00010502106329737460020B3A6F6209606E4
:1044E0009307C612B697D8C382801386F6FF3707A4
:1044F000105021073366E62037470020B3A7F62087
:10450000939657009307C712B697D0C382808357FC
:1045100085019387F7039983939667000346B50156
:104520000947630DE60083A7B1855CC5B697A3ADC7
:10453000F1843717105063F6E70082809396770076
:10454000DDB7411106C6B78600109386862A3796D6
:1045500000101306469193052005378500101305BA
:10456000C52EEFF04FB9011106CE22CC26CA4AC89B
:104570004EC69374F50713547500B3A784209607AD
:10458000374700201307C712BA97BE89413D81E81B
:10459000F2406244D2444249B2490561828083D5E7
:1045A00089014E85AD3783C7B901EA0703A7C90062
:1045B000B7061050358FD98F9397F72903A7490075
:1045C0001CC3F9B7411106C69377F5071D81B3A740
:1045D000A7209607374500201305C5123E954524B0
:1045E000B24041018280411106C601E98545394545
:1045F000EFC04FDAB24041018280B7860010938647
:10460000C635379600101306469093057019378506
:1046100000101305C52EEFF00FAE411106C609E9D3
:104620000146814513050008713FB2404101828077
:10463000B78600109386C635379600101306468F4E
:104640009305101A378500101305C52EEFF0AFAA99
:10465000B72711504167F8C78280411106C622C4AE
:1046600026C22DE92A84E92AB7041150B147BCDCDF
:104670001306F00FB70500209385A52E3945EFC02E
:104680002FDE130600048145374500201305C512AF
:10469000EF3060120146930500040145E9350146FB
:1046A00093050004130500087D3D97C0FF0FE780C8
:1046B00060B48547BCC0B7070020FCC4F567C107DC
:1046C00023A8F408228569370545B2402244924464
:1046D00041018280B78600109386C6353796001058
:1046E0001306869293053016378500101305C52EE4
:1046F000EFF06FA0A38BB18499C5B727115037078E
:10470000020023A8E708828083C7050013F7F7019A
:1047100009EB93F7070691E703C715009547630375
:10472000F700828003C72500B707115098C3828025
:1047300003C635000D8A05476305E602411106C62A
:10474000AE8703C7450083C55500A205D98D93F5F3
:10475000F57F03C52700EFF01FE10545B240410199
:10476000828001458280411106C697C0FF0FE78015
:1047700060A8B24041018280411106C609E92E8538
:10478000B285368681350545B24041018280B786C3
:1047900000109386C635379600101306468E930593
:1047A0004020378500101305C52EEFF0CF9441113E
:1047B00006C613F5F50701E993D7750085EB0947A0
:1047C000B7271150B8D79D813325B520160513168C
:1047D000B0288145B74700209387C7123E9597C000
:1047E000FF0FE780E0F1B240410182800547C9BF79
:1047F00013F5F50711E18280411106C69D8133252D
:10480000B5201605B74700209387C7123E95A30130
:1048100005000146FD759385F57F97C0FF0FE78082
:1048200020EEB2404101828001A803C705002300A9
:10483000E500850505053E869307F6FF7DF6828037
:10484000411106C6B7070010372702401CC337378F
:1048500002401CC3B70702409C4737070010B377DC
:10486000F740EDFB0566814537051050EF20B07429
:10487000B70711502547F8DBB24041018280411152
:1048800006C622C426C24AC02A84AE84328983471F
:10489000A501A1E7231A2401231B04008547230D4A
:1048A000F40004C8228597C0FF0FE780E0CF19C548
:1048B000B72711503707020023A8E708228597C0C1
:1048C000FF0FE78020D105C98547230EF400B240D1
:1048D0002244924402494101828083452500378564
:1048E00000101305C544EFF0CFB6228597C0FF0F27
:1048F000E780C0DF45B7228597C0FF0FE780C0E59E
:10490000F9B7411106C622C426C2AA84014431A8BF
:10491000998F9607379700101307C79FBA97DC4700
:104920002685829705041374F40F03C73187A28785
:104930009306170063C88602E37CE4FC83A77187B3
:1049400013175400BA97E1FF13065022B7950010D1
:104950009385859C3785001013054548EFF06FAFB0
:1049600002903DA8130640058145374500201305F8
:10497000C5CFEF20506437470020130707D0FD57FD
:104980001CC35CC31CC75CC737470020130707D193
:104990001CC35CC31CC75CC71CCB5CCB1CCF5CCFEF
:1049A000B2402244924441018280411106C6913FA7
:1049B000EF104012B24041018280411106C622C46C
:1049C00026C24AC02A892E84B284C849EF106012D8
:1049D0005C48268685454A858297B24022449244A7
:1049E000024941018280797106D65AC82A8B138503
:1049F000F5FF1375F50FEFF09F8A01C966C2834C6E
:104A0000150089476385FC02924C1306603DB795FB
:104A100000109385C5993785001013054548EFF0C0
:104A20004FA302900145B250424B4561828022D48F
:104A300026D24AD04ECE52CC56CA5EC662C4034776
:104A40007500B74700209387C7CF13565748120603
:104A500083C60700BD9AD18E2380D70013576748BD
:104A6000160793F6F60F93F6F6FD558F2380E700B1
:104A7000130A95000347250083473500A207D98F05
:104A8000B30BF50095A2034C3A0083470A003E9A07
:104A9000A5A21306103FB79500109385C5993785D9
:104AA000001013054548EFF0CF9A029001452254BB
:104AB00092540259F249624AD24AB24B224C924C69
:104AC0009DB733848A401604B79700109387C79F19
:104AD0003E941C484E86D2855A8582972A89933700
:104AE000950093C7170033B7A90013471700F98F34
:104AF000B9EB850493F4F40F03C43187A68A9307B6
:104B0000140063CE970CE3FE84FA03A47187939795
:104B100054003E945DFC1306A03FB79500109385AA
:104B2000C5993785001013054548EFF08F92029024
:104B30000145225492540259F249624AD24AB24B78
:104B4000224C924CCDB585476300FC04814663FE40
:104B5000860783472A00B69793F7F70F3747002059
:104B60001307C7CF3E97034647001307F00F63169E
:104B7000E602374700201307C7CFBA972382970072
:104B8000850693F6F60FE1B71848B76700109387CC
:104B9000E71FE31DF7FA668C55BF13069041B795E2
:104BA00000109385C5993785001013054548EFF02F
:104BB0004F8A02900145225492540259F249624AA6
:104BC000D24AB24B224C924CB9BDA6864A86D285B7
:104BD00037450020130505D1EF2080194A9A83C775
:104BE0003187850763C55703637B7A0503471A003E
:104BF000AD47E30AF7E8054C03471A009147E31A6B
:104C0000F7E8B3894B41B3C909088144F5B51306E8
:104C10008042B79500109385C5993785001013051C
:104C20004548EFF00F8302900145225492540259F7
:104C3000F249624AD24AB24B224C924CEDB305453E
:104C4000225492540259F249624AD24AB24B224C3F
:104C5000924CD1BB82808280014582800145828056
:104C6000411106C622C426C2AA842E8403C525008B
:104C700083C73500A207A18319476388E70E6367DE
:104C8000F7020947638AE7060D47638FE70A05477E
:104C9000639CE700EFF00FE02A8621C1C946A28598
:104CA0002685EF0070548DA80145BDA01D47638582
:104CB000E7043D476391E702EFF04F872A8661C121
:104CC0008346250083473500A207DD8EA285268511
:104CD000EF00905191A0014581A01306A043B79524
:104CE0000010938545983785001013054548EFE07F
:104CF0005FF6029001450DA009476384E702B93FC2
:104D00002A8641C18346260083473600A207DD8EEE
:104D1000A2852685EF00504DB240224492444101C5
:104D20008280EFF0CFD72A8671FD13061046B79523
:104D30000010938545983785001013054548EFE02E
:104D40005FF102900145C9BF83C545008347540008
:104D5000A207DD8DEFF04FD52A8615C583460500E5
:104D6000A2852685EF00504845BFFD352A8611CD26
:104D700083460500A2852685EF00104771BF0145D7
:104D800061BF014551BF014541BF014571B78280F7
:104D9000828082808280B74700209387C7CF03C577
:104DA00017003335A0008280B747002003A5C7CF86
:104DB000135525488280B747002003C5D7811305C6
:104DC00015F03335A0008280011106CE22CC26CA10
:104DD0004AC84EC62A892E84AE89F13FAA84631A36
:104DE000050C2DC0130640058145374500201305ED
:104DF000C5CFEF20501CA38D018613857186EFC0AF
:104E00000FB413847186A3A1818637450020130552
:104E10004581EFC04FBE3744002013050480EF20CA
:104E2000F00913040480A3A78186B7470010938775
:104E300007D899C713853187EFE09FF4A3ABA1860C
:104E4000014425A81306201DB79500109385C59E23
:104E50003785001013054548EFE0BFDF029091A8A9
:104E6000998F9607379700101307C79FBA97DC43AF
:104E700085C7829705041374F40F03C73187A2878F
:104E80009306170063CF8602E37CE4FC83A7718757
:104E900013175400BA97E1FF1306001FB7950010CF
:104EA0009385C59E3785001013054548EFE07FDAEE
:104EB00002902685F2406244D2444249B2490561DB
:104EC0008280B7470020A38E2781CE854A85EFF0E8
:104ED000CFF8AA8409C54A85EFF0EFF0D9BF1306D1
:104EE000801FB79500109385C59E37850010130568
:104EF0004548EFE01FD602906DBF411106C626C29D
:104F00004AC0B747002083C7D7813E8983C72500A1
:104F100093F7070795EB22C42E84B74700209387A9
:104F2000C7CF83C527002285EF10F054AA8405CD92
:104F3000A2854A85EFF0CFFFAA8422442685B2409D
:104F400092440249410182801306B050B795001087
:104F5000938545953785001013054548EFE07FCFD1
:104F600002908144E1BF1306C050B79500109385AD
:104F700045953785001013054548EFE09FCD029019
:104F800022446DBF797106D622D426D24AD04ECEA5
:104F900052CC56CA5AC85EC6AA8A2E84B289368AAC
:104FA0003A8BBE8B0149B9A81306704EB795001015
:104FB000938545963785001013054548EFE07FC976
:104FC000029081442685B250225492540259F249EB
:104FD000624AD24A424BB24B456182801306804EF0
:104FE000B795001093854596378500101305454801
:104FF000EFE03FC60290F9B72380BB00834704006F
:105000003E940509635A3903034714009547E31D8D
:10501000F7F8834534008D89E39845F9A2855685D4
:10502000EFF0BFEDAA845DD98345240093D77500C6
:10503000E1F72300BB00D9B7854469B7411106C623
:1050400013F5F5079D813325B52013050503B747F3
:1050500000209387C7CF3E9583A531861105EF10B9
:10506000B034B24041018280411106C613F5F50704
:105070009D813325B52013050503B747002093878D
:10508000C7CF3E9583A531861105EF109039B24008
:1050900041018280411106C622C426C2B7470020C2
:1050A00003C5D78113F4F50793D47500B7470020E3
:1050B0009387C7CFB327F420A69783C74703858B71
:1050C000A1E7B74700209387C7CFB327F420A6975F
:1050D00003C7470313671700238AE702EFF0CFE9FE
:1050E00031E1B74700209387C7CF3324F4202694BB
:1050F00083474403F99B230AF40283474403ED9B4F
:10510000230AF402029039A813069053B7950010B1
:10511000938545943785001013054548EFE07FB32C
:1051200002900145B24022449244410182804111E3
:1051300006C622C426C2AE8413F4F507B747002082
:1051400003C5D781EFF0AFE69D80B7470020938776
:10515000C7CFB327F420A69703C7470313672700D9
:10516000238AE70203C7470313671700238AE7026E
:10517000B2402244924441018280411106C622C4B9
:1051800026C2AE8413F4F507B747002003C5D781C4
:10519000EFF00FE69D80B74700209387C7CFB32776
:1051A000F420A69703C74703759B238AE70203C72A
:1051B0004703799B238AE702B2402244924441018B
:1051C000828093F7F5079D81374700201307C7CFEB
:1051D000B3A7E720AE9703C5470313551548828050
:1051E000797106D622D426D24AD02A892E84014546
:1051F000EF0030108347040093F7070613070006FB
:10520000638BE706130700046386E708034704007F
:105210007D8B85466306D72889466306D732631996
:105220000742130700026384E708E5E3834714009D
:105230001547638EE70E636DF70C05476385E7221C
:105240000D476387E71E639A0724B747002083C78B
:10525000C7CF13D7270093D75748098BD98F231768
:10526000F10089461306E100A2854A85EF00C07768
:105270008547BE84C5A61306402DB79500109385BB
:10528000059B3785001013054548EFE09F9C029071
:105290008144C9A637450010130565D3EF0070059A
:1052A000228685454A85EFE01FA9AA8465A60347A3
:1052B000440083475400A207D98FBD4663E3E63A12
:1052C0003747002093F7F70F1307C7CFBA9783C765
:1052D000470003C7318763F9E70083A57187960705
:1052E000BE9591ED8144BDA69306170063CDF636B9
:1052F000998F9607B79500109385C59FBE95228616
:105300004A85EFF08FEBAA84B1A60290814499A65A
:1053100021476383E70425476381E7061947639EB6
:10532000E716A2854A85EFF0BF93AA8425A62285B9
:10533000EF00E07C834524004A85EFF00FAEB747CD
:1053400000209387C7CF03C7070013672700238078
:10535000E7008547BE84FDACB74700209387C7CFE1
:1053600083C717002307F10085461306E100A285D5
:105370004A859D2D8547BE84F1AC4ECE83472400DF
:10538000BE89B74700209387C7CF83C71700638ABA
:105390003709B74700209387C7CF83C7170095E326
:1053A000B74700209387C7CFA380370163890906D9
:1053B000CE854A85EFF02FE3AA840DCDEFF03F9D17
:1053C0008DA052CC56CA81454A85EFF0AFB24A85CE
:1053D000EFF06FB9B74700209387C7CF3E8A83C7E6
:1053E0002700BE8A4A85EFF0CFD123015A01624AD5
:1053F000D24A7DB713064032B79500109385059BBE
:105400003785001013054548EFE0BF840290B74789
:1054100000209387C7CFA3800700F24925ACEFF0A7
:105420003F97A2854A8585238547BE84F2491DA4FE
:105430000347240083473400A207D98F05476384BC
:10544000E700814401ACB74700209387C7CF03C76B
:105450000700136787002380E700A2854A8525237C
:105460008547BE84C5AA0347240083473400A207AA
:10547000D98F05476384E7008144E9AAB747002034
:105480009387C7CF03C707005D9B2380E700A285F2
:105490004A85D5298547BE8475AA029081445DAAB4
:1054A0000347440083475400A207D98FBD4663EEEB
:1054B000E61A3747002093F7F70F1307C7CFBA97BD
:1054C00083C7470003C7318763F8E70483A5718763
:1054D0009607BE95638D051822864A85EFF0EFCDBD
:1054E000AA84631905168347040093F7070663939C
:1054F000071683471400D9170547636DF714014554
:10550000CD2B03471400A9476304F702A2854A85FF
:105510009D298547BE843DAA9306170063CBF614E8
:10552000998F9607B79500109385C59FBE956DB767
:105530002307010085461306E100A2854A856D21F7
:105540008547BE8401AA8345440013F7F50713D6A7
:10555000750093F605078DEEB74600209386C6CFFB
:105560003327D72032970347470183C631876370BB
:10557000D70483A6718716073697BA84A1CB638CAC
:10558000040E2286A6854A85EFF02FC3AA84D9A0EF
:1055900013065039B79500109385059B3785001089
:1055A00013054548EFE0EFEA0290814465A01386B9
:1055B0001600634BE600158F1607B796001093860A
:1055C000C69F3697BA845DBF81444DBF83471400A0
:1055D00005476384E7020D476381E702BDE74A851B
:1055E000EFF03FBE2317A10089461306E100A28514
:1055F0004A85DD2E8547BE84B1A883462400034733
:1056000034002207558F19E70547638CE7024A8566
:10561000EFF0FFB1BDC02286A6854A85EFF0EFB955
:105620000145C129B74700209387C7CFDC5B93D7DB
:105630008748BE8485E3A2854A85B1268547BE8416
:1056400011A84A85EFF07FB3F1B70290814419A009
:10565000029081442685B2502254925402594561E9
:1056600082808144C5BF8144F5B78144E5B7814458
:10567000D5B78144C5B78144F1BF8547BE84D9BF42
:10568000011106CEEFF02FF36304052422CCE9A02C
:105690001147639CE722B747002083A7C7CF858BBC
:1056A000C5CFB747002003A5C7CF13553548EFF046
:1056B0004FEE5DA01D476389E71221476384E71E13
:1056C00019476394E72083C7B1876380071083C7B6
:1056D000B187FD1793F7F70FA38DF18683C7B187C5
:1056E000A5EFB74700209387C7CF03C7070013670D
:1056F00017002380E70003C74703799B238AE7024B
:1057000003C747036D9B238AE70203C75703799BAF
:10571000A38AE70203C757036D9BA38AE7022C0005
:1057200003454100EFF0DFAB05E98145034541004A
:10573000EFF0EF879305000803454100EFF02F8756
:1057400021A803454100EFF04FA6B74700202247AC
:105750009387C7CF2381E70003A4F1865C48737762
:10576000043093963700B316D028F19B2FA6D74468
:10577000758E6DFE0F00300318CC4C002285EF10A3
:10578000906358481C4C0F00300323000700A18B86
:1057900073A00730630D05128347510015476389D5
:1057A000E70EE369F7F00D476384E710E362F7EE75
:1057B0000547E388E7F809476399E7100345410087
:1057C000EFF0AF9EEFF0CFDC41BF13065026B79548
:1057D00000109385C59D3785001013054548EFE0FF
:1057E0004FC702906244EDA08345810013F7F5078F
:1057F00013D67500B74700209387C7CFB327F7208C
:10580000B29783C64703F99A238AD70283C6470310
:10581000ED9A238AD7021DCBB74700209387C7CFC5
:105820003327F72032978347470103C7318763F651
:10583000E70203A771879607BA9785CF9C4FB246B8
:105840000346910003454100829739B7B2460346AB
:10585000910003454100FD2C01B79306170063CA70
:10586000F600998F9607379700101307C79FBA97CE
:10587000F1B713060029B79500109385C59D3785AC
:10588000001013054548EFE0CFBC0290624489A0A8
:10589000B747002083A7C7CF858BE38F07EAEFF0D8
:1058A0006FCF5DBDA247E38907EA324582976DB5A8
:1058B000B74700209387C7CF83C73700858BE38D19
:1058C00007E82245EFF02FB941BD029071B562445F
:1058D000F24005618280411106C68387050063CBD3
:1058E00007009305000881460146EFF0AFFAB24089
:1058F000410182808145C5BF011106CE22CC26CA56
:105900004AC84EC6AA89B7470020938787CC03D9D7
:10591000C70083D4E70033049940334404081307D5
:1059200000043354E40A8387070063C407028145F7
:105930006307990437460020130686C8A2864E8561
:10594000EFF04FF5F2406244D2444249B24905615A
:10595000828063039902B7470020938787CC8C47E6
:1059600063618702228637450020130585C8EF1042
:10597000106F930500086DBF9305000855BF0146E1
:1059800075BF0145C1B7411106C6B74700209387CF
:1059900087CC83CE050003CE150003C3250083C842
:1059A000350003C8450003C6550083C66500238043
:1059B000D701A380C70123816700A3811701238238
:1059C0000701A382C7002383D70003C77500A38301
:1059D000E70023A407002397070023960700EFF0B2
:1059E0009FEFB24041018280411106C622C4B747F1
:1059F0000020938787CC03CF050083CE150003CE0C
:105A0000250003C3350083C8450003C8550003C7FC
:105A100065002380E701A380D7012381C701A3810B
:105A2000670023821701A38207012383E70003C7CE
:105A30007500A383E70090C72397070003C865009C
:105A400003C77500220733670701B356D70A2396A9
:105A5000D70003C7650083C77500A207D98FA9CBFC
:105A600091C211CAEFF05FE92A840DC52285B240C8
:105A700022444101828013062007B79500109385C8
:105A800045A53785001013054548EFE08F9C02902F
:105A90000144E9BF13064007B7950010938545A55B
:105AA0003785001013054548EFE0AF9A02907DBF9F
:105AB000EFF07FE22A845DF913066007B7950010C6
:105AC000938545A53785001013054548EFE06F988D
:105AD000029069BFB7470020938787CC23A00700B7
